:020000040000FA
:1000000000F00EEF00F0FFFFA4EF01F0FFFFFFFF95
:10001000FFFFFFFFFFFFFFFFACEF01F0FFFF00EE70
:10002000FFF0EE6A14EF00F0FFFF9D6A200E806E75
:10003000180E926E100E816E010E936E400E826E3F
:1000400094688368956A030E846E060E966EA9689E
:10005000010EA66EA8500C6E0C50AA0A01E1C6D083
:100060000C0EAF6E240EAC6E900EAB6EBF0E946E87
:10007000100402E1230ED4D8106A0F6A086A176AC6
:10008000186AF86A0D6A0D5056E1176A186A9EBA26
:1000900011D0174A182A18501710F9E11050E8E14A
:1000A0002A0EBED8F4D8082A0A0E0864F0D70C50DD
:1000B000EEE19CD0AE500E6E0E50126E0E503A0A0B
:1000C00006E1010E0F6E0A6A076A096A31D00F5005
:1000D000CFE0072A410E0E6002D0D00E01D0C90E2B
:1000E0000E2607A004D00E38F00B146E0BD00E5065
:1000F0001426145009260A50190FE96EEA6A14C032
:10010000EFFF0A2A050E19C002F0036A0226000E4C
:1001100003220AC000F0016A0150800A046E0350F5
:10012000800A045C02E10250005C02E3010E0D6EE5
:10013000125076D8A8D709509BE1105004E1010E67
:10014000106EFE0EBBD8A3D81AC0F7FF1BC0A9FFC4
:10015000A9CFF6FF5BD0F850D8B4A6AE12D0030EEC
:10016000F76001D059D0F750030A0AE1300EF6606B
:1001700005D00C50B00A50E173D803D071D801D02B
:100180006FD8F850200A03E10C50B00A45E10A6A22
:1001900019500A5C41E20A501D0FE96EEA6AEF50FD
:1001A000A86EA8CFF5FF0A50070B070A04E0A6BE09
:1001B000A6BC01D002D0010E01D0000E056EA6BE75
:1001C00046D8A6BC02D0A6BE02D031D805D0055074
:1001D00003E02DD8A928F66EA92AA6BCA9CFF6FF60
:1001E0000A2AD6D7AA0E6AD8400E1AD8A0EC01F077
:1001F00013D0800EA66E1E50F00AD8B4A66A1E5008
:10020000300AD8B4A68C1EC0F8FF06D01C50A3E05C
:10021000010AE8E0050AEDE00D0E02D80F6A32D7B8
:10022000FFFF9EA8FED7AD6E1200FFFFFAD7FFFFBB
:10023000A684550EA76EAA0EA76EA68200F0A6B2DF
:10024000FED7A694A6B6F3DF1200FFFFF1D7FFFF9B
:10025000055002E00C0001D00D001200FFFFF8D79E
:10026000FFFFF644E846030BD96ED950400DF65017
:10027000F31801E1F45208E1A6500001FF6F900E5F
:10028000A66ED5DFFFC0A6FF1200FFFFEAD7FFFF73
:10029000112A07D0540E03D05E0E01D01A0E816EC3
:1002A0000AD01150010AF6E0030AF6E0010AF6E06E
:1002B000100E816E116A1200FFFFEAD7FFFFA66AD7
:1002C000A968A86EB4D7FFFFFAD7FFFFFFFFFFFFB3
:1002D000FFFFFFFFFFFFFFFFFFFFFFFFFFFFFFFF2E
:1002E000FFFFFFFFFFFFFFFFFFFFFFFFFFFFFFFF1E
:1002F000FFFFFFFFFFFFFFFFFFFFFFFFFFFFFFFF0E
:100300004ADEC3DA3F12094EA2EAA5DB640D00768D
:10031000FFFFFFFFFFFFFFFFFFFFFFFFFFFFFFFFED
:10032000FFFFFFFFFFFFFFFFFFFFFFFFFFFFFFFFDD
:10033000FFFFFFFFFFFFFFFFFFFFFFFFFFFFFFFFCD
:1003400000F0A9EF01F0FFFFFFFFFACFFFF57DEF0F
:100350003CF0FFFFF86A00EE82F012EE7BF0EE6AEE
:10036000E550E150FCE1E250FAE100EE0DF06F0ED5
:10037000EE6AE806FDE105EEA1F0550EEE6AE8062C
:10038000FDE105EE35F08C0EF66E160EF76E10EEF2
:100390006CF00900F5CFEEFFE550E150FAE1E250D4
:1003A00002E0C9EF01F0E2EF30F0E96AEA6A0C6AB4
:1003B000086A096A0A6A0B6A0450051006100710D9
:1003C00006E1046A056A066A076A1DEF3EF0C00E80
:1003D0000C1606D0D89004360536063607360C2A99
:1003E00007AEF8D70C2AD890083609360A360B36ED
:1003F0000750035C08E10650025C05E10550015C12
:1004000002E10450005C09E308800450005E0550DE
:10041000015A0650025A0750035AD8900732063242
:10042000053204320C060C503F0BDDE10CBC6AECCB
:100430003EF00050046E0150056E0250066E0350EF
:10044000076E0850006E0950016E0A50026E0B5084
:10045000036E0CAE21EF3EF06AEC3EF021EF3EF071
:10046000086A01340234066E04E00836026A018E1E
:100470001200006A016A026A000C08920434053412
:10048000076E05E0D8B00882056A048E1200076A7C
:10049000036A046A056A120006487B800650E9E098
:1004A000019E08320630026ED8B0018E7FEF0BF04D
:1004B000065220E0025010E0020403E1002A01226B
:1004C0000222D890023201320032062AF1E10250B3
:1004D000EFE07BA67B92F0D70050011002100AE0FB
:1004E00001BEDAD7062E02D07B82DAD7D89000364A
:1004F0000136F6D77CEF0BF0E96AEA6A30EC02F0DD
:100500003DEC02F0096A0A6A0B6A070E056ED89084
:100510000432033206E30050092601500A22025039
:100520000B22D890003601360236052EF0D7090E80
:10053000056E04D0D8900B320A320932D8900432BA
:10054000033206E30050092601500A2202500B2212
:10055000052EF0D70830081A0950006E0A50016EB7
:100560000B50026E7B967BB27B8606520AE00750E8
:1005700008E00626860E07E3065ED8B07B8058EFBB
:1005800002F07CEF0BF0065ED8A07B8258EF02F001
:10059000BD00FFFFBFC0F3FFC0C0F4FFBDC0D9FF67
:1005A000BEC0DAFF0001C151006EC251016EC10729
:1005B000000EC25B015000101AE0F3CFF6FFF4CF3B
:1005C000F7FFF34AF42AD9CFE9FFDACFEAFFD94A95
:1005D000DA2A050EF76404D00800FFFFF55005D0B5
:1005E000F6CFE1FFF7CFE2FFE750EF6EDBD7BDC0FC
:1005F00000F0BEC001F01200FFFFCCD7FFFFFFFFED
:100600003031323334353637383941424344454648
:1006100000252A7A002532753A253032753A253080
:100620003275002533732532752F2530327500253C
:1006300033732025327500252A75002532753A2539
:1006400030327525317300590025362E345500257A
:10065000352E33550025362E32550025352E325590
:100660000025342E32550025362E3155004E00B06F
:1006700018B418BC18AA28AA28AA28AA28AA28AAFE
:1006800028AA28E218121926194A19681974198615
:10069000198A198E19A019C219E819641AAC1AE03E
:1006A0001A1C1B6C1B6E1B221DD41DD61D6C1E0C30
:1006B0001F6C1F741F8A1F0C21B021B621162290B7
:1006C000220A23422352236E23AA28AA28AA28AA50
:1006D00028AA28AA28AA28AA28AA28AA28AA28AA8A
:1006E00028F62502263E27AA23EC23262460249AF6
:1006F00024D4240C250E2520253E25662568257446
:10070000258C25AA25B825D625AA28AA28AA28AA4C
:1007100028AA28AA28AA28AA28AA28AA286C276EC4
:10072000278C27DA27E427F8279A28040E140E05C9
:100730000E04000E11010D15150E004A414E4645DE
:10074000424D41524150524D41594A554E4A554CE5
:100750004155475345504F43544E4F5644454341EE
:100760004D504D000053554E4D4F4E545545574535
:100770004454485246524953415400001F1C1F1E06
:100780001F1E1F1F1E1F1E1FFF0001FFFF01020073
:100790000181828382FFFF3F073FFFFF0053554DDA
:1007A0004D455257494E544552414E4E55414C5479
:1007B0004945525354415254454E442020504541DE
:1007C0004B202020204F46462D5045414B54455844
:1007D000545441424C20202020204649525354205A
:1007E0002020202020202020535441544500000088
:1007F00000000000000000205345545550202020E8
:10080000204E4F5720454E544552494E47202020F8
:1008100020205345545550204D4F444520000000A2
:100820000020202020202020204D4F4E54482F44CF
:1008300041592F5945415220205345542044415499
:1008400045200000000000000000002020202020A3
:100850002020204155544F2D41444A5553542046A1
:100860004F52204441594C4947485420534156491E
:100870004E47530000202020203A2020205345548A
:100880002054494D45202048483A4D4D2000000055
:100890000000000000000000000000000000002038
:1008A00020202020202020534554204D45544552DF
:1008B00020524541442020444159204F46204D4F6D
:1008C0004E5448200000000000202020202020203E
:1008D00020534554205554494C4954592020202038
:1008E0002052415445533F20592F4E200000000014
:1008F00000000020504C45415345205345452049B8
:100900004E535452554354494F4E534245464F520D
:100910004520524154455320534554000020202087
:100920002020202020444F20594F552057414E541D
:1009300020544F2020534554205241544520504CC0
:10094000414E3F2020000020202020202020202079
:1009500031202D20555341202020202020202020F0
:1009600032202D2043414E414441202020202000B0
:10097000002020202020202020312D466C61742072
:10098000322D5469657265642020332D54696D657C
:10099000206F662055736520200000202020202035
:1009A00020202053554D4D45522F57494E54455206
:1009B00020202052415445533F20000000000000F9
:1009C000000000000053554D4D455220204A554E21
:1009D00020303120544F20534550203135454E545E
:1009E0004552205354415254204441544500005331
:1009F000554D4D455220204A554E20303120544F00
:100A000020534550203135454E54455220454E44E3
:100A100020444154452020000024302E2020202056
:100A200020202020202020202020202020202020C6
:100A30002020205241544520504552204B574820F9
:100A400020000020202020202020202020202048BE
:100A50004F57204D414E59202020202052415445CF
:100A60002054494552533F2020202000004B574836
:100A7000202020202020202020425245414B2020B1
:100A80002020202020202020202020202020202066
:100A90002020202020000020202020202020202096
:100AA000202020484F57204D414E59202020202003
:100AB0002020544F552052415445533F20202000C0
:100AC0000020202020202050202020202020202016
:100AD000544F2020202020202020202020202020B3
:100AE00020504552494F442020000024302E202021
:100AF000202020414E4E55414C20454E45524759ED
:100B00002020204655454C205355524348415247DA
:100B10004520000000242020202E202020414E4E81
:100B200055414C204649584544202020204D4F4EE9
:100B300054484C5920434841524745200000002466
:100B40002020202E202020414E4E55414C204D4942
:100B50004E494D554D20204D4F4E54484C59204341
:100B60004841524745200000002020202020202519
:100B70002053414C45532054415820524154452064
:100B80000000000000000000000000000000000065
:100B9000000000202020202020202020205341562B
:100BA00045204348414E4745532020202020202007
:100BB0002020592F4E2000000000000000242F4864
:100BC000202020202054544C2054445920202420FC
:100BD0002020202020202020202020202020202015
:100BE000202020204D00004B572020202020304B7B
:100BF000574820544F4441592020202020202020B5
:100C000020202020202020202020202020204D00D7
:100C100000242F48202020202054544C2054445994
:100C200020202420202020202054544C204D5444A7
:100C30002024393939392E393000004B57202020F3
:100C40002020304B574820544F4441592020202029
:100C50002020204B5748204D544420202020202085
:100C6000202E300000242F482020202020504541F5
:100C70004B2054445920202420202020205045413E
:100C80004B204D5444202024202020202000004BC5
:100C9000572020202020305045414B20544F4441C4
:100CA000592020202020205045414B204D544420E5
:100CB000202020202020200000242F482020202039
:100CC0002054544C204D54442024393939392E397C
:100CD0003054544C2050524F4A24393939392E3926
:100CE0003000004B572020202020304B5748204D0B
:100CF00054442020202020202020204B57482050E2
:100D0000524F4A2020202020202020000056203151
:100D100031372E39204C4F203132332E3140313291
:100D20003A3232414D4849203132312E324031324F
:100D30003A3334414D000024302E2020202020431F
:100D4000555252454E5420454E4552475920205247
:100D500041544520494E20454646454354202000F5
:100D600000202020202020202044415953204C45A1
:100D7000465420494E2020202042494C4C494E47A1
:100D8000204359434C452020200000484953544FEC
:100D900052592046524F4D2050524556494F5553B7
:100DA0002020204D45544552205245414420444185
:100DB00054455300004D4D2F44442F595954544C21
:100DC000204B574820202020393939393954544C88
:100DD00020434F535424393939392E3930000020FB
:100DE000454E44204F46202020202020484953547F
:100DF0004F525920202020202020202020444154E0
:100E0000412020202020200000244820414C415235
:100E10004D5045414B20242F485220242020202093
:100E2000204C494D4954202020202024200000003F
:100E30000000004B5720414C41524D5045414B2042
:100E40004B572020202020202020204B57204C4989
:100E50004D495420202020202020200000244D2017
:100E6000414C41524D54544C204D54442024202098
:100E700020202020304C494D49542020202420207F
:100E800020202020300000574820414C41524D4B3B
:100E90005748204D54442020202020202020204B43
:100EA0005748204C494D4954202020202020200024
:100EB00000564C20414C41524D564F4C5453204EFD
:100EC0004F57202020202020204C4F204C494D49B6
:100ED0005420202020202020000000564820414C93
:100EE00041524D564F4C5453204E4F5720202020F6
:100EF0002020204849204C494D49542020202020C2
:100F000020000000002020202020202020454E41ED
:100F1000424C4520414C41524D20202020534F55FA
:100F20004E443F20592F4E000000000000000020DA
:100F300020202020202020202020414C41524D53B1
:100F4000204F4E3F202020202020202020592F4EAF
:100F5000000000000000000000202053544F5020EB
:100F600020202020202020524541442020202020E5
:100F7000202020494E535452554354494F4E53203C
:100F80000000002020202020202020202020204899
:100F90004F57204D414E59202020202020484F55AA
:100FA000534520434F4445533F200000002020205C
:100FB00020202020202053455420484F55534520C1
:100FC000434F44452020544F204D41544348204D29
:100FD00054552331000000202020202020202020F4
:100FE00053455420484F55534520434F44452020F6
:100FF000544F204D41544348204D54552332000056
:101000000020414C41524D2020242F4852204E4F69
:1010100057203D2420202020204C494D4954203D7C
:10102000202020242000000000000020414C4152DC
:101030004D20204B57204E4F57203D202020202070
:101040002020204C494D4954203D20000000000044
:10105000000000000020414C41524D202024204D32
:101060005444203D2020202420202020204C494D85
:101070004954203D202020242000000000000020B2
:10108000414C41524D20204B5748204D5444203D67
:10109000202020202020204C494D4954203D200074
:1010A00000000000000000000020414C41524D2093
:1010B00020564F4C5420544459203D2020202020BD
:1010C000204C4F204C494D4954203D200000000049
:1010D00000000020414C41524D2020564F4C5420DE
:1010E000544459203D2020202020204849204C49AC
:1010F0004D4954203D200000000000000020414CDC
:1011000041524D202044415441204C494E4B2054E3
:101110004F204D54554953204E4F5420574F524B5A
:10112000494E47200000002020202020202020546D
:1011300055524E20414C41524D532020202020201A
:10114000204F46463F000000000000000000000065
:1011500000544543484F4E4C5920204348414E4788
:101160004553204152452020202020205045524DFB
:10117000414E454E540000000000004D5455205291
:101180004541440000000000000000000000000095
:10119000000000000000000000000000000000004F
:1011A000000000000020202020202020204C494E5C
:1011B0004B20504552464F524D414E434520202032
:1011C000202020202020202020202020200000205F
:1011D00020202020202020454E544552204B5720CF
:1011E00041444A5553542028302E313030202D2090
:1011F000342E3030302920000020202020202020D4
:1012000020524553455420414C4C20544F54414C9E
:101210005320202020544F205A45524F2020202078
:10122000200000202020202020202052455345541B
:101230002056414C55455320544F20464143544F6E
:1012400052592053455454494E4753000000000062
:1012500000FF00000000000000300000FF00000060
:10126000000000000B0000FF000000000001000073
:101270000000FF00000000000000060000FF00006A
:101280000000000000040000FF000000000000005B
:10129000030700FF00000000000000000000FF0046
:1012A00000000000000409000006640000010000C6
:1012B00000030A00FF00000000000000000000FF23
:1012C0000000000000000509000C00680000FFFF9E
:1012D000020508000D066400000100030509000E68
:1012E000026500009F05040509000F060201001FAA
:1012F000000505080010066400000100060011004A
:1013000000FF00000000000001060012FF000000C6
:10131000000007050800130664000001000800141F
:101320000000FF0000000000000509001506010193
:1013300000020009050900160601010003000A0168
:101340000800170600000000000B001C0000FF0052
:1013500000000000000509001900670000FF1F0CD5
:101360000509001A00670000FF1F0D001B0000FFA9
:10137000000000000000001C0000FF000000000052
:10138000000509001D060E00000F270E001C0000BE
:10139000FF0000000000000509001F060102000513
:1013A000000F00200000FF00000000000005090001
:1013B00021250500002F751000200000FF0000000F
:1013C00000000005090023060102000400110024AA
:1013D0000000FF0000000000000509002510650066
:1013E000009F051200240000FF0000000000000024
:1013F000270000FF00000000000005090028060E7D
:10140000000009C31305090029046A00000F27140E
:101410000509002A046A00000F271500270000FFB5
:101420000000000000000509002C026A00000F27E0
:10143000160508002D0664000001001700300000AA
:10144000FF00000000000000000000FF000000009E
:101450000000012E003104000000000018012E00E1
:101460003204000000000019012E003304000000C7
:1014700000001A012E00340400000000001B012EA1
:1014800000350400000000001C012E00360400009E
:101490000000001D012E00370400000000001E01A6
:1014A0002E00380400000000001F012E002F040051
:1014B0000000000020012E0039040000000000217F
:1014C000012E0030040000000000220106003BFF56
:1014D0000000000000230106003CFF0000000000A7
:1014E0002400060030FF0000000000250509003E32
:1014F0002B6A00000F27260509003F2B6A00000F0A
:10150000272705090040296E00002F7528050900CE
:10151000412B0500002F752905090042296EE803BB
:10152000CF072A05090044296EE803CF072B0509D8
:1015300000441C0400000F27000509004508640052
:101540000001002C050900460864000001002D0080
:10155000300000FF00000000000001060048FF000E
:10156000000000002E050900490601010002002FBD
:10157000004A0000FF0000000000000509004B06C3
:101580000D0000FF0030004C0000FF0000000000D4
:10159000000509004D060D0000FF0031003000007D
:1015A000FF00000000000000000000FF000000003D
:1015B000000001060056FF00000000003201060096
:1015C00056FF00000000003301060056FF00000037
:1015D00000003401060056FF00000000003501063F
:1015E0000056FF00000000003601060056FF000014
:1015F0000000003701060056FF000000000038051B
:101600000800570664000001003900300000FF00A8
:10161000000000000001060059FF00000000003A31
:101620000106005AFF00000000003B0106005BFFBE
:1016300000000000003C0509005C046C6400A00F81
:101640003D0508005D0664000001003E0508005EDF
:101650000664000001003F00300000FF00000000B1
:1016600000004649524D5741524520524541445988
:1016700020544F204C4F41442020504C5320524581
:101680004144204D414E55414C2000002020434311
:101690004343202057454C434F4D4520504C414E2D
:1016A0003A5050504131305858585858582076398F
:1016B0002E303120FB323232320100000261001242
:1016C0006100430100610300822100924100A10AF0
:1016D00000A28400B118000100010500C10500212D
:1016E000040001060001722101822101924101A141
:1016F0000A01B11801B11901026A016A006AE950D0
:10170000EA1006E002C0EDFF01C0EDFF00C0EFFFF0
:10171000000CFFFF0501B16BD8C5E8FF0501D41926
:1017200002E159EF14F0D4C5D8F5D8C5E8FF0B0D88
:10173000F3CF3FF0F4CF40F00501B76B16D03F5028
:101740004D0FF66E4050F76E120EF722B7C5E8FF48
:1017500002EE9DF0E926000EEA220800FFFFF5CF19
:10176000EFFF3F4A402A0501B72B0A0E0501B76576
:10177000E6D702019D0E026F020E036F02C2E9FF5F
:1017800003C2EAFFEFCFD1F500EE04F00251E926E3
:101790000351EA22EF50006E002808E000EE04F04A
:1017A0000251E9260351EA22EFCFDAF5020100EEF9
:1017B00001F00251E9260351EA22EF5008E000EE61
:1017C00001F00251E9260351EA22EFCFD4F50201DC
:1017D00000EE02F00251E9260351EA22EF5008E040
:1017E00000EE02F00251E9260351EA22EFCFD0F5D4
:1017F000020100EE03F00251E9260351EA22EF5004
:1018000008E000EE03F00251E9260351EA22EFCF8F
:10181000D6F5020100EE05F00251E9260351EA2255
:10182000EF5008E000EE05F00251E9260351EA22EC
:10183000EFCFD2F50501D1A51DD0020100EE06F0D3
:101840000251E9260351EA22EECF00F0EDCF01F07C
:1018500000C089F201C08AF200EE08F00251E926C8
:101860000351EA22EECF00F0EDCF01F000C087F285
:1018700001C088F20501D1A159EF14F0D8C5E8FFE5
:101880000501D71911E0300E0001B76F020100EE1B
:101890000AF00251E9260351EA22EF500001B86F25
:1018A000B96B000E4EEC3AF0D8C5D7F559EF14F0ED
:1018B0006FEF14F00501D56B6FEF14F00501BA530B
:1018C00004E1D0C5D4F50501B86B0501B85302E1B8
:1018D0006FEF14F0B82F6FEF14F0D0C5D4F56FEFA1
:1018E00014F00001060EBD6F020EBE6F030EBF6F37
:1018F000010EC06F770EC16FC26BC9EC02F005011B
:10190000F46B010E0001BA6FBB6BC9EC33F006EF4C
:1019100011F0050E0001BA6FBB6BC9EC33F002EE9B
:1019200006F08DEF12F07FC200F002EE06F00036F6
:10193000EF500018FD0B0018EF6E020E0001BA6F99
:10194000BB6BC9EC33F006EF11F0070E0001BA6F64
:10195000BB6BC9EC33F06EC200F0016A0028E8CF1F
:101960007FF2000E012029D002017F05E8CF6EF240
:1019700048EF14F002017F51801102E06FEF14F084
:101980002C0EAAEF13F06FEF14F048EF14F00201E1
:101990007F51801102E06FEF14F01B0EAAEF13F0DD
:1019A00002EE06F0EF380F0B006E00C002F0036A83
:1019B0000228E8CF7FF2000E0320E8CF80F26FEF1D
:1019C00014F07FC200F0FF0E002602EE06F0003A8F
:1019D000EF5000180F0B0018EF6E02EE06F0EF301C
:1019E000006E0030030B38D002EE06F0EF30006ED0
:1019F0000030030B006E00C002F0036A80C2E8FFF3
:101A0000031803E17FC2E8FF021808E116D0010EB7
:101A1000E8CF07F212D00201076B0FD07FC202F0AD
:101A200080C203F008D00250010AF5E0030AEFE09B
:101A3000010AEDE002D00350F6E07FC200F002EEB2
:101A400006F000360036EF500018F30B0018EF6E6A
:101A500002EE06F0EF50010B006E020100C07FF2B3
:101A60009DEF12F07FC200F002EE06F0EF5000187A
:101A7000FE0B0018EF6E020106A10AD0180EAAEFA5
:101A800013F08BD71E0EAAEF13F0220EAAEF13F05D
:101A900002EE06F0EF30006E0030030B010AF1E0B9
:101AA000030AF0E0010AF1E06FEF14F01A0EE8CF3C
:101AB000DAF516C2B7F017C2B8F0670EC1EC1BF02A
:101AC00014C27FF215C280F2100EE8CFDAF57FC2A1
:101AD000B7F080C2B8F0670EC1EC1BF06FEF14F0E6
:101AE0007FC214F280C215F2100EE8CFDAF514C2EC
:101AF000B7F015C2B8F0670EC1EC1BF016C27FF24A
:101B000017C280F21A0EE8CFDAF57FC2B7F080C2B2
:101B1000B8F0670EC1EC1BF06FEF14F07FC216F245
:101B200080C217F217D0010EE8CF07F258C27FF239
:101B300059C280F21C0E0BD0020107C27FF2806BEB
:101B40001E0E05D0020107C27FF2806B220EE8CF85
:101B5000D4F514D202EE06F0EF30006E0030030B25
:101B6000010AE1E0030AE8E0010AECE007D2BED096
:101B7000020106A10CD00501F153020104E09D0E03
:101B8000046F070E08D0A30E046F070E04D00201E5
:101B9000A90E046F070E056F1A0E0001B76F00EE55
:101BA000B8F004C2EEFF05C2EDFF060EBA6FBB6BC4
:101BB000150E7CEC3AF0F1C5E8FF88D0010EE8CFB5
:101BC000EBF50501EC6B05D00501EB6B010EE8CFE1
:101BD000ECF5F1C500F0EBC5E8FF020107250002B6
:101BE000F2C5E8FFF324E8CFEFF506A10CD005011C
:101BF000F153020104E09D0E046F070E08D0A30EFE
:101C0000046F070E04D00201A90E046F070E056FC2
:101C1000160E0001B76F00EEB8F004C2EEFF05C269
:101C2000EDFF060EBA6FBB6B110E7CEC3AF01D0E89
:101C3000E8CFDAF502EE06F0EF30006E0030030B6D
:101C4000020A0CE10201AF0E046F070E056F1B0EB6
:101C5000E8CFEEF5040EE8CFF5F516D0080EE8CF84
:101C6000F5F51F0EE8CFEEF50501F253020105E090
:101C7000BD0E046F070E056F07D0C50E046F070E6B
:101C8000056F200EE8CFDAF5EEC5B7F000EEB8F03C
:101C900004C2EEFF05C2EDFFF5C5E8FF0001BA6F13
:101CA000BB6B180E7CEC3AF0200E0501DA610CD00B
:101CB000ECC500F0F2C5E8FF00240001B76FB86B77
:101CC000B837010EC1EC1BF0EFC5E8FF020D580E4E
:101CD000F324E96E020EF420EA6EEECF00F0EDCFB1
:101CE00001F000C07FF201C080F20FD002EE06F0DA
:101CF000EF30006E0030030B010A01E139D7030A0F
:101D000001E162D7010A01E159D7060EE8CFDAF501
:101D10007FC2B7F080C2B8F0050EC1EC1BF06FEFC8
:101D200014F03DD0F1C5EFF5020106A105D0050183
:101D3000F12B010EF1652FD0260EE8CFD4F53BD064
:101D4000F1C500F0EBC5E8FF020107250002F2C56E
:101D5000E8FFF324E8CFEFF506A106D00501F15323
:101D600002E1F12B03D0F16B0501F22BEBC5E8FF8B
:101D700007C202F0036A0226000E0322F2C500F039
:101D8000016A0150800A046E0350800A045C02E17B
:101D90000250005C02E21C0ED0D7270ECED702EE16
:101DA00006F0EF30006E0030030B010ABBE0030ABF
:101DB000C7E0010AC5E0EFC5E8FF020D580EF324A5
:101DC000E96E020EF420EA6E7FC2EEFF80C2EDFFE4
:101DD0006FEF14F0CBD07FC207F20501F06B050165
:101DE000F36B0501F16B010EE8CFF2F502EE18F08E
:101DF000EE6AEE6A7FC200F080C201F0D890003433
:101E0000026E0134036E180E0224E96E020E0320E6
:101E1000EA6EFF0EEE68ED68020106A16FEF14F0A6
:101E20007FC200F080C201F0D8900034026E01340D
:101E3000036E1A0E0224E96E020E0320EA6EEE6AA9
:101E4000ED6A7FC200F080C201F0D8900036013602
:101E5000D890003601361A0E0024E96E020E0120D9
:101E6000EA6EFF0EEE68ED686FEF14F01A0EE8CF21
:101E7000DAF5F2C5E8FF0001B76FB86B010EC1ECEF
:101E80001BF0020106A11BD00501F153020104E081
:101E90009D0E046F070E03D0A30E046F070E056F8F
:101EA0002A0E0001B76F00EEB8F004C2EEFF05C2C3
:101EB000EDFF060EBA6FBB6B240E7CEC3AF0F1C559
:101EC00000F0020107290002F2C5E8FFF324E8CF81
:101ED000EFF5EFC5E8FF020D180EF324E96E020ED0
:101EE000F420EA6EEECF00F0EDCF01F000C07FF2FB
:101EF00001C080F2060EE8CFDAF57FC2B7F080C2EB
:101F0000B8F0040EC1EC1BF06FEF14F0F1C500F057
:101F1000020107290002F2C5E8FFF324E8CFEFF53C
:101F2000EFC5E8FF020D180EF324E96E020EF4204F
:101F3000EA6E7FC2EEFF80C2EDFF06A10AD0050166
:101F4000F12B010EF16507D00501F22B0501F16BB4
:101F500002D00501F22B07C2E8FF0501F26102D0B1
:101F6000200EF8D31C0EE8CFD4F508D0020107C22A
:101F70007FF2E3D202017F05E8CF07F20501F06BA3
:101F80000501F36B0501F26B13D1F3C500F0F1C548
:101F900001F007C202F0D8900236D8900234010254
:101FA000F0C501F0F2C502F0D8900234036E015082
:101FB0000324016ED8900134026EF3500224016EA6
:101FC00000500124E8CFEFF5EFC5E8FF020D180E31
:101FD000F324E96E020EF420EA6EEECF00F0EDCFAE
:101FE00001F000C07FF201C080F20E0EE8CFDAF5FA
:101FF000F2C500F000280001B76FB86B000EB823DF
:10200000010EC1EC1BF02F0EE8CFDAF5F0C500F0A1
:1020100000280001B76FB86B000EB823010EC1ECA9
:102020001BF00201A90E046F070E056F06A10CD06C
:102030000501F153020104E09D0E046F070E03D069
:10204000A30E046F070E056F250E0001B76F00EE9B
:10205000B8F004C2EEFF05C2EDFF060EBA6FBB6B0F
:10206000200E7CEC3AF00501F353020112E1B30EAD
:10207000046F070E056F100EE8CFEEF51A0EE8CFCD
:10208000EDF5EFC5E8FF020D1A0EF324E96E020E1E
:1020900011D0B80E046F070E056F1A0EE8CFEEF5DB
:1020A000100EE8CFEDF5EFC5E8FF020D160EF32494
:1020B000E96E020EF420EA6EEECF00F0EDCF01F0F3
:1020C00000C000F201C001F2090E0001B76F00EE7E
:1020D000B8F004C2EEFF05C2EDFF050EBA6FBB6B90
:1020E000000E7CEC3AF0EDC5DAF500C2B7F001C2A3
:1020F000B8F0650EC1EC1BF0EEC5DAF57FC2B7F0A3
:1021000080C2B8F0650EC1EC1BF0E9D3F3C500F056
:10211000F1C501F007C202F0D8900236D89002341F
:102120000102F0C501F0F2C502F0D8900234036E4E
:1021300001500324016ED8900134026EF350022442
:10214000016E00500124E8CFEFF5EFC5E8FF020D66
:10215000180EF324E96E020EF420EA6E7FC2EEFF41
:1021600080C2EDFF0501F32B010EF365B8D3F36BCD
:102170000501F02B010EF065B2D3F06B0501F22BD7
:1021800007C2E8FFF25D01E2AAD3F26B020106A1E9
:1021900005D00501F12B010EF165A1D30501F06B0E
:1021A0000501F36B0501F26B0501F16B1C0ED2D238
:1021B0000501F16B94D3020106A11BD00501F15377
:1021C000020104E09D0E046F070E03D0A30E046FFE
:1021D000070E056F150E0001B76F00EEB8F004C2D0
:1021E000EEFF05C2EDFF060EBA6FBB6B100E7CEC66
:1021F0003AF0F1C5E8FF020D100EF324E96E020E6D
:10220000F420EA6EEECF00F0EDCF01F000C07FF2D7
:1022100001C080F264D3F1C5E8FF020D100EF32473
:10222000E96E020EF420EA6E7FC2EEFF80C2EDFF7F
:10223000F1C5E8FF020D080EF324E96E020EF4204A
:10224000EA6EEECF00F0EDCF01F000C07FF201C0EA
:1022500080F2020106A143D30501F153020104E01B
:102260009D0E046F070E03D0A30E046F070E056FBB
:10227000150E0001B76F00EEB8F004C2EEFF05C204
:10228000EDFF060EBA6FBB6B100E7CEC3AF027D355
:10229000F1C5E8FF020D080EF324E96E020EF420EA
:1022A000EA6E7FC2EEFF80C2EDFFF1C5E8FF020DCE
:1022B0000C0EF324E96E020EF420EA6EEECF00F06D
:1022C000EDCF01F000C07FF201C080F2020106A153
:1022D00006D30501F153020104E09D0E046F070EC1
:1022E00003D0A30E046F070E056F150E0001B76F24
:1022F00000EEB8F004C2EEFF05C2EDFF060EBA6FA5
:10230000BB6B100E7CEC3AF0EAD2F1C5E8FF020D8F
:102310000C0EF324E96E020EF420EA6E7FC2EEFF8B
:1023200080C2EDFF0501F12B02EE06F0EF50010B2C
:10233000006EF1C5E8FF005C02E22B0E0BD2270E07
:1023400009D26CC27FF26DC280F2010EE8CFF4F5C3
:10235000C6D2F4C500F0000404E17FC26CF280C272
:102360006DF20201010E7F6F000E806BB8D2020188
:102370007F51801113E00001030EBD6F010EBE6F8F
:10238000060EBF6F020EC06F770EC16FC26BC9EC35
:1023900002F0010E0001BA6F3DEC35F0AFEC2DF00C
:1023A00000C01FF001C020F09AD201EE7AF0EF5089
:1023B000010BE8CFDCF501017A911B0EE8CFDAF5CD
:1023C00097C1B7F098C1B8F06A0EC1EC1BF07BC1A1
:1023D0007FF27CC180F22B0EE8CFDAF57FC2B7F036
:1023E00080C2B8F06A0EC1EC1BF079D27FC27BF1DB
:1023F00080C27CF11B0EE8CFDAF599C1B7F09AC123
:10240000B8F06A0EC1EC1BF07DC17FF27EC180F294
:102410002B0EE8CFDAF57FC2B7F080C2B8F06A0EB3
:10242000C1EC1BF05CD27FC27DF180C27EF1190E3F
:10243000E8CFDAF547C0B7F048C0B8F06E0EC1EC8F
:102440001BF07FC17FF280C180F2290EE8CFDAF560
:102450007FC2B7F080C2B8F06E0EC1EC1BF03FD265
:102460007FC27FF180C280F11B0EE8CFDAF52DC06C
:10247000B7F02EC0B8F0050EC1EC1BF081C17FF2A1
:1024800082C180F22B0EE8CFDAF57FC2B7F080C2AE
:10249000B8F0050EC1EC1BF022D27FC281F180C2E0
:1024A00082F11A0EE8CFDAF545C0B7F046C0B8F0B1
:1024B0006E0EC1EC1BF083C17FF284C180F22A0E44
:1024C000E8CFDAF57FC2B7F080C2B8F06E0EC1EC8B
:1024D0001BF005D27FC283F180C284F11A0EE8CFCF
:1024E000DAF545C0B7F046C0B8F06E0EC1EC1BF08F
:1024F00085C17FF286C180F22A0EE8CFDAF57FC26D
:10250000B7F080C2B8F06E0EC1EC1BF0E8D17FC20C
:1025100085F180C286F101EE7AF0EF302BEF0DF0FD
:102520007FC200F001EE7AF00036EF500018FD0B8C
:102530000018EF6E0201DCC57FF2806BD0D17FC244
:1025400000F001EE7AF0EF500018FE0B0018EF6E6D
:102550000501AB6B050E1B6E1C6A020E0001BA6F03
:10256000010E3DEC35F0BBD101EE6EF0EF50010BEA
:10257000D4EF0CF07FC200F0FF0E002601EE6EF0EB
:10258000EF500018FE0B0018EF6EA9D102016FC1C9
:102590007FF2806B060EE8CFDAF57FC2B7F080C21B
:1025A000B8F00D0EC1EC1BF09AD17FC26FF10101A2
:1025B0006EB195D14D0ECED0020170C17FF2806B0D
:1025C000060EE8CFDAF57FC2B7F080C2B8F00D0E84
:1025D000C1EC1BF084D101016EB102D0006A02D0BF
:1025E0007FC200F0016A00C070F1010E0001BA6FF5
:1025F0003DEC35F074D1FF0EEFEC2FF0E8CFEFF5A6
:102600006ED10D0E0501EF6502D03C0EA3D0EFC5D3
:10261000E8FF060DB20EF324E96E010EF420EA6E17
:10262000EF500F0BE8CFC8F5090E0501C86502D0C1
:10263000310E01D0300EE8CF9DF20A0E016EC8C5F2
:10264000E8FF49EC3DF00050300FE8CF9EF22F0E2E
:10265000E8CF9FF2EFC5E8FF060DB30EF324E96E55
:10266000010EF420EA6EEF30006E003200301F0BD6
:10267000E8CFC8F5090E0501C86508D00A0E016E3D
:10268000C8C5E8FF49EC3DF0300F01D0300EE8CF6F
:10269000A0F20A0E016EC8C5E8FF49EC3DF00050FB
:1026A000300FE8CFA1F22F0EE8CFA2F2EFC5E8FF7E
:1026B000060DB30EF324E96E010EF420EA6EEF501E
:1026C000070B300FE8CFA3F2EFC5E8FF060DB20EFF
:1026D000F324E96E010EF420EA6EEF380F0B300F91
:1026E000E8CFA4F20F0E0001BD6F000E9DEC3AF092
:1026F0001B0EE8CFDAF5EFC5E8FF060DB40EF324A4
:10270000E96E010EF420EA6EEECFB7F0EDCFB8F02F
:10271000050EC1EC1BF0290EE8CFDAF5EFC5E8FF96
:10272000060DB60EF324E96E010EF420EA6EEECF2C
:10273000B7F0EDCFB8F06E0EC1EC1BF0D0D00E0E9E
:102740000501EF610AD0EFC5E8FFEFEC2FF0E8CF0D
:10275000EFF53B0EE8CFD4F5C2D0300E0001B76FD5
:10276000250EB86FB96B000E4EEC3AF0B8D00201EE
:1027700070C07FF2806B110EE8CFDAF57FC2B7F040
:1027800080C2B8F00D0EC1EC1BF0A9D0640E046E2F
:10279000056A066A076AAFC000F0B0C001F0B1C0B8
:1027A00002F0B2C003F091EC3CF0B3C004F0B4C04E
:1027B00005F0B5C006F0B6C007F09EEC3DF000C0D5
:1027C0007FF201C080F20501DA6B7FC2B7F080C2F0
:1027D000B8F00D0EC1EC1BF082D06CC17FF26DC160
:1027E00080F27DD07FC26CF180C26DF1010E0001DC
:1027F000BA6F3DEC35F04CD002017F51801148E0BA
:10280000676A686A696A6A6A356A366A01EEA5F0BB
:10281000EE6AEE6AEE6AEE6A01EEA9F0EE6AEE6A20
:10282000EE6AEE6A01EEADF0EE6AEE6AEE6AEE6A0C
:1028300001EE99F0EE6AEE6A01EE9BF0EE6AEE6A46
:1028400001EEA1F0EE6AEE6AEE6AEE6A01EE9DF02C
:10285000EE6AEE6AEE6AEE6A01EE95F0EE6AEE6AF4
:1028600001EE97F0EE6AEE6A0101DC0E876F050E4D
:10287000886F0101E80E8B6F030E8C6F0101DC0E77
:102880008F6F050E906F0101E80E926F030E936F2C
:1028900002EE7FF0EE6AEE6A22D002017F518011D3
:1028A0001EE0000EDBEC35F01AD00501010EB12B55
:1028B00016D0D8C5E8FFFF0FF8E6A20FF6E75E0FC7
:1028C000020D6F0EF324F66E060EF420F76E09006B
:1028D000FFFFF5500900FFFFF5CFFAFFF96E120078
:1028E000FFFF8AEF0BF0FFFF4BD2D7C5D4F50501F0
:1028F000BA5304E1FF0EE8CFD0F583D2D0C500F083
:10290000002801E07ED2BAC500F0000403E1D5C57D
:10291000D4F507D0BAC5E8FF200A01E072D2D6C5C7
:10292000D4F50501D06B6DD20501D36B300EE8CF25
:10293000D5F5060EE8CFDAF521C0B7F022C0B8F021
:102940006A0EC1EC1BF01A0EE8CFDAF523C0B7F01F
:1029500024C0B8F06B0EC1EC1BF0200EE8CFDAF506
:10296000090E0001BA6FBB6BC9EC33F000C0B7F0C1
:1029700001C0B8F0670EC1EC1BF0290EE8CFDAF504
:10298000020E0001BA6FBB6BC9EC33F000C0B7F0A8
:1029900001C0B8F0650EC1EC1BF033D20501D36B5A
:1029A0002F0EE8CFD5F5040EE8CFDAF52BC0B7F03F
:1029B0002CC0B8F06A0EC1EC1BF01A0EE8CFDAF5A5
:1029C00031C0B7F032C0B8F06E0EC1EC1BF0200E73
:1029D000E8CFDAF5090E0001BA6FBB6BC9EC33F032
:1029E00000C0B7F001C0B8F0670EC1EC1BF0290EB3
:1029F000E8CFDAF5020E0001BA6FBB6BC9EC33F019
:102A000000C0B7F001C0B8F0650EC1EC1BF0F9D101
:102A1000320EE8CFD5F5060EE8CFDAF521C0B7F0D3
:102A200022C0B8F06A0EC1EC1BF01A0EE8CFDAF53E
:102A300023C0B7F024C0B8F06B0EC1EC1BF0290E18
:102A4000E8CFDAF547C0B7F048C0B8F06E0EC1EC79
:102A50001BF0D7D1310EE8CFD5F5040EE8CFDAF56B
:102A60002BC0B7F02CC0B8F06A0EC1EC1BF01A0EE8
:102A7000E8CFDAF531C0B7F032C0B8F06E0EC1EC75
:102A80001BF0290EE8CFDAF52DC0B7F02EC0B8F054
:102A9000050EC1EC1BF0B5D1340EE8CFD5F5060E0E
:102AA000E8CFDAF521C0B7F022C0B8F06A0EC1EC69
:102AB0001BF01B0EE8CFDAF597C1B7F098C1B8F05C
:102AC0006A0EC1EC1BF02B0EE8CFDAF59BC1B7F014
:102AD0009CC1B8F06A0EC1EC1BF093D1330EE8CF65
:102AE000D5F5040EE8CFDAF52BC0B7F02CC0B8F05E
:102AF0006A0EC1EC1BF01B0EE8CFDAF595C1B7F0FA
:102B000096C1B8F06A0EC1EC1BF02B0EE8CFDAF5D7
:102B100099C1B7F09AC1B8F06A0EC1EC1BF071D13F
:102B2000360EE8CFD5F5060EE8CFDAF521C0B7F0BE
:102B300022C0B8F06A0EC1EC1BF0190EE8CFDAF52E
:102B400047C0B7F048C0B8F06E0EC1EC1BF0290EBC
:102B5000E8CFDAF54BC0B7F04CC0B8F06E0EC1EC60
:102B60001BF04FD1350EE8CFD5F5040EE8CFDAF5DE
:102B70002BC0B7F02CC0B8F06A0EC1EC1BF01B0ED6
:102B8000E8CFDAF52DC0B7F02EC0B8F0050EC1ECD5
:102B90001BF02B0EE8CFDAF52FC0B7F030C0B8F03D
:102BA000050EC1EC1BF02DD1380EE8CFD5F5020E85
:102BB000E8CFDAF545C0B7F046C0B8F06E0EC1EC0C
:102BC0001BF0120EE8CFDAF587C1B7F088C1B8F074
:102BD0006E0EC1EC1BF0190EE8CFDAF589C1B7F023
:102BE0008AC1B8F0650EC1EC1BF0220EE8CFDAF511
:102BF0008BC1B7F08CC1B8F06E0EC1EC1BF0290E82
:102C0000E8CFDAF58DC1B7F08EC1B8F0650EC1EC32
:102C10001BF0F7D0370EE8CFD5F5060EE8CFDAF582
:102C20001DC0B7F01EC0B8F00E0EC1EC1BF0E9D00D
:102C30001FC07FF220C080F2040EE8CFDAF57FC219
:102C4000B7F080C2B8F0020EC1EC1BF002EE7FF0CC
:102C5000EE6AEE6AD6D01B0EE8CFDAF521C0B7F0E7
:102C600022C0B8F06A0EC1EC1BF02B0EE8CFDAF5EB
:102C70007BC1B7F07CC1B8F06A0EC1EC1BF0C1D0CB
:102C80001B0EE8CFDAF52BC0B7F02CC0B8F06A0EF7
:102C9000C1EC1BF02B0EE8CFDAF57DC1B7F07EC199
:102CA000B8F06A0EC1EC1BF0ACD0190EE8CFDAF523
:102CB00047C0B7F048C0B8F06E0EC1EC1BF0290E4B
:102CC000E8CFDAF57FC1B7F080C1B8F06E0EC1EC85
:102CD0001BF097D01B0EE8CFDAF52DC0B7F02EC051
:102CE000B8F0050EC1EC1BF02B0EE8CFDAF581C170
:102CF000B7F082C1B8F0050EC1EC1BF082D01A0EFD
:102D0000E8CFDAF587C1B7F088C1B8F06E0EC1EC34
:102D10001BF02A0EE8CFDAF583C1B7F084C1B8F012
:102D20006E0EC1EC1BF06DD01A0EE8CFDAF58BC138
:102D3000B7F08CC1B8F06E0EC1EC1BF02A0EE8CFD4
:102D4000DAF585C1B7F086C1B8F06E0EC1EC1BF0A4
:102D500058D00201010E7F6F000E806B52D002012D
:102D60007F51010A80114DE101017A914AD005019C
:102D7000AB6B0A0E1B6E1C6A300EE8CFD4F541D047
:102D8000D8C5E8FF2E0A01E1B0D5010A01E1CCD592
:102D90001F0A01E103D6010A01E13AD6030A01E163
:102DA00059D6010A01E178D6070A01E197D6010A4E
:102DB00001E1B6D6030A01E1D5D6010A01E1F4D654
:102DC0000F0A01E127D7010A01E132D7770ACFE0E4
:102DD000010A01E140D71F0A01E152D7010A01E1CE
:102DE00064D7030A01E176D7010A89E0070A9CE06B
:102DF000010AAEE0030AADE0010AB1E00501010EEF
:102E0000B12B1200FFFF70D5FFFFA4EF1BF0BCEF4A
:102E10001BF0BAC5E8FF200A02E0BCEF1BF0D6C5E4
:102E2000D4F5BCEF1BF089C202F08AC203F07FC266
:102E300000F080C201F00350015C02E10250005C2E
:102E400004E289C27FF28AC280F27FC202F080C2AD
:102E500003F087C200F088C201F00350015C02E178
:102E60000250005C04E287C27FF288C280F27FC217
:102E7000B7F080C2B8F0D2C5E8FFC1EC1BF0050185
:102E8000E16B0501E26B0501E36BFF0EE8CFDDF5B9
:102E9000E8CFDEF5E8CFDFF50501B46B0501C86BBF
:102EA00025D10501E06B010E006E016A1AD1050102
:102EB000E06B0501C82B030EE8CFE1F5040EE8CF67
:102EC000E2F5010EE8CFDDF50B0E006E016A00C0E1
:102ED00097F201C098F202EE99F03B0EEE6EED6AA9
:102EE00002EE9BF0010E52D00501C82B0501E06BEC
:102EF000030EE8CFE1F5060EE8CFE2F5010EE8CFCC
:102F0000DDF5040EE8CFDEF50B0E006E016A00C0A1
:102F100097F201C098F202EE99F03B0EEE6EED6A68
:102F200002EE9BF033D0020EE8CFC8F50501E06B4E
:102F3000030EE8CFE1F5010EE8CFDDF50B0E006ED4
:102F4000016A00C097F201C098F202EE99F01F0EDC
:102F500035D0020EE8CFC8F50501E06B020EE8CFD0
:102F6000E1F5050EE8CFE2F5030EE8CFDEF50B0E36
:102F7000006E016A00C097F201C098F202EE99F06B
:102F80001F0EEE6EED6A02EE9BF0630EEE6EED6AC2
:102F9000020EE8CFB4F50CD10501E06B030EE8CFCB
:102FA000E1F5010EE8CFDDF5090E006E016A00C003
:102FB00097F201C098F202EE99F0630EEE6E000EE9
:102FC000ED6E0501B42BF4D0010EE8CFE0F5040E50
:102FD000E8CFE1F5020EE8CFDDF5630EE6D7020E8D
:102FE000E8CFE0F5050EE8CFE1F5030EE8CFDDF51B
:102FF00000680168DCD7030EE8CFE0F5050EE8CFE6
:10300000E1F5040EE8CFDDF50068016800C097F235
:1030100001C098F202EE99F0090ED0D70501E06BDD
:10302000040EE8CFE1F5010EE8CFDDF5090E006EE4
:10303000016A00C097F201C098F202EE99F0E70E23
:10304000EE6E030EBDD70501E06B050EE8CFE1F58E
:10305000010EE8CFDDF5090E006E016A00C097F29F
:1030600001C098F202EE99F00F0EEE6E270EA8D76F
:10307000D2C5E8FFF50FE8CFE0F5D2C5E8FF0B0AAF
:1030800007E1090E006E016A00C097F201C098F2D4
:10309000D2C5E8FF0C0A07E1630E006E016A00C0AA
:1030A00097F201C098F2D2C5E8FF0D0A08E1E70ED9
:1030B000006E030E016E00C097F201C098F2D2C5F7
:1030C000E8FF0E0A08E10F0E006E270E016E00C029
:1030D00097F201C098F2D2C5E8FF0F0A69E10068D3
:1030E000016800C097F201C098F262D0D2C5E8FF33
:1030F0000B0ABEE0070ABCE0010ABAE0030AB8E026
:10310000010AB6E06B0A01E1CCD6010A01E1CFD693
:10311000030A01E1E9D6010A01E105D70F0A01E13D
:1031200018D7010A90E0030A01E14ED7010A01E134
:1031300056D7070A01E172D7010A01E12DD7030A28
:1031400001E159D70501D205E8CFE0F5D2C500F07D
:10315000000407E1090E006E016A00C097F201C089
:1031600098F2D2C5E8FF020A07E1630E006E016A19
:1031700000C097F201C098F2D2C5E8FF030A08E147
:10318000E70E006E030E016E00C097F201C098F2C8
:10319000D2C5E8FF040A08E10F0E006E270E016E8B
:1031A00000C097F201C098F2D2C5E8FF050A97E087
:1031B0000501B36B0501B56B0501C26BC8C5E8FF1E
:1031C0000501DA25E8CFAEF5100EDA6104D0C8C5E6
:1031D000E8FF0501AE27AEC5ADF5CED2D8C5D0F516
:1031E0000501CC6B02D10501B76B0A0EE8CFC3F520
:1031F0000501B55319E0B5C5E8FF05EEDFF0E92696
:10320000000EEA22EF50006E0028E8CFB7F5B5C5F2
:10321000E8FF05EEDCF0E926000EEA22EF50006E32
:10322000002802E00501B72B0501B55305E00ED0DB
:103230000C0EE8CFC3F50AD0D2C5E8FF650AF8E066
:10324000030AF6E0010AF4E00F0AF2E0010E376E1D
:10325000386AB5C5E8FF05EEE0F0E926000EEA227F
:10326000EF500501B75D10E2C3C502F0036A37C035
:1032700000F038C001F02DEC3EF004C037F005C07E
:1032800038F00501B72BE5D7010E3F6E406A010EFD
:103290003B6E3C6AB4C5B7F53AD0B5C5E8FF030D3F
:1032A000B7C5E8FFF326000EF422F350880FF66E40
:1032B000F450F76E070EF7220800FFFFF550E8CF35
:1032C000C9F5C9C500F0002835E03FC002F040C094
:1032D00003F03BC000F03CC001F02DEC3EF004C018
:1032E0003BF005C03CF0C9C5E8FF020D970EF32482
:1032F000E96E020EF420EA6EEECF00F0EDCF01F0A1
:1033000000283F6E000E0120406E0501B707B7C5CB
:1033100000F000280FE0D2C5E8FF650ABEE00D0A04
:10332000BCE0B7C5C9F5B5C5E8FF0501B761C9D7A8
:10333000FF0EC5D73FC039F040C03AF07FC281F2DE
:1033400080C282F23A50391027E039C002F03AC008
:1033500003F0FF0E0068016816EC3DF005503C5C80
:1033600002E104503B5C18E239C002F03AC003F0BD
:103370003BC000F03CC001F02DEC3EF004C002F078
:1033800005C003F081C200F082C201F016EC3DF0EE
:1033900000C081F201C082F23BC002F03CC003F0E9
:1033A00002EE81F0EE50006EEF50016E16EC3DF033
:1033B0000550ED6E0450EF6E0501B55312E181C268
:1033C00002F082C203F097C200F098C201F00350ED
:1033D000015C02E10250005C04E297C281F298C2F3
:1033E00082F2010EE8CFB3F58FD1B3C5E8FF000A32
:1033F00001E1F9D6020AA2E087D1FF0EE8CFCCF5B1
:1034000081C23FF082C240F0C3C502F0036AFF0EE2
:103410000068016816EC3DF00550385C02E104508C
:10342000375C37C002F038C003F017E2C3C500F0C4
:10343000016A2DEC3EF004C002F005C003F03FC06D
:1034400000F040C001F016EC3DF000C03FF001C0BC
:1034500040F037C002F038C003F03FC000F040C079
:1034600001F016EC3DF004C0C8F5010EE8CFCAF536
:10347000FF0EE8CFC9F53BC002F03CC003F081C2AB
:1034800000F082C201F02DEC3EF07FC200F080C25D
:1034900001F00450005C3F6E05500158406E05017C
:1034A000CB6BB5C500F000040CE1D2C5E8FF680A9B
:1034B00004E0D2C5E8FF670A04E10201812B000E97
:1034C0008223CAC5E8FFC3C502F0036A025E000E8C
:1034D000035AC8C500F0016A0150800A046E035007
:1034E000800A045C02E10250005C3AE281C200F012
:1034F00082C201F0B5C5E8FF020D970EF324E96E14
:10350000020EF420EA6EEECF02F0EDCF03F037505A
:10351000025E3850035A0150035C02E10050025C25
:103520001FE33BC002F03CC003F037C000F038C0DE
:1035300001F02DEC3EF087C200F088C201F07FC29E
:10354000E8FF005C026E80C2E8FF0158036E055080
:10355000035C02E10450025C03E3FF0EE8CFCBF50D
:103560000501CB530CE037C000F038C001F0020178
:1035700000C0E8FF812701C0E8FF822310D037C0D8
:1035800002F038C003F0C8C500F0016A2DEC3EF02F
:10359000020104C0E8FF815F05C0E8FF825BB5C59A
:1035A00000F0000410E10201815182110CE0D2C54B
:1035B000E8FF680A04E0D2C5E8FF670A04E10201F7
:1035C0008107FF0E82233BC002F03CC003F081C2A2
:1035D00000F082C201F02DEC3EF03F500424E8CF11
:1035E0007FF240500520E8CF80F289C202F08AC203
:1035F00003F07FC200F080C201F00350015C02E1E1
:103600000250005C0BE237C000F038C001F002014C
:1036100000C0E8FF812701C0E8FFD4D7020EE8CF41
:10362000B3F54BD0FF0EE8CFCCF50501C22B050159
:10363000AD2B100EAD6101D0AD2BB5C5E8FF05EE89
:10364000DDF0E926000EEA22EF500501C21907E17C
:10365000C22B0501AD2B100EAD6101D0AD2BB5C550
:10366000E8FF05EEE0F0E926000EEA22EF50006EDA
:10367000C2C5E8FF005C14E20501B52BB5C5E8FF43
:1036800005EEE0F0E926000EEA22EF5006E1050122
:10369000C26B0501B56BAEC5ADF50501B36B0DD0C1
:1036A0000A0E026E036A37C000F038C001F016EC53
:1036B0003DF004C037F005C038F0070EE8CFB8F58C
:1036C00030D0FF0EE8CFCCF5020EE8CFB3F589C2BB
:1036D0007FF28AC280F225D0D6C5D4F5FF0EE8CF9E
:1036E000ADF51FD00CD0FF0EE8CFCCF51AD0FF0EF1
:1036F000E8CFCCF5E8CFADF5D5C5D0F512D0D5C51E
:10370000E8FF000AF0E0F3D7BAC5E8FF010AEAE0F3
:10371000030A88E0060A01E170D6020AD2E0260A0E
:10372000DBE00501CC5328E0030EE8CFD4F5B3C5A8
:10373000E8FF020A21E17FC2B7F080C2B8F0D2C52B
:10374000E8FFC1EC1BF018D0D8C5E8FF060A02E17B
:1037500007EF17F0010A02E109EF17F00F0A02E183
:1037600011EF17F0010A02E113EF17F0030A01E16C
:1037700035D50501010EB12B1200FFFF05EF17F043
:10378000B700FFFFD96EF8D00001B851B71104E0BF
:10379000470EC56F060EB9D000016D0EC56F060E3F
:1037A000B4D03C0E026E036AB7C000F0B8C001F09E
:1037B00016EC3DF000C0CBF001C0CCF03C0E026E28
:1037C000036AB7C000F0B8C001F016EC3DF004C0C9
:1037D000B7F005C0B8F03C0E026E036AB7C000F047
:1037E000B8C001F016EC3DF000C0C9F001C0CAF04D
:1037F0003C0E026E036AB7C000F0B8C001F016ECD0
:103800003DF004C0C7F005C0C8F02FD00001150E70
:10381000C56F060E7AD000013B0ECB6F070ECC6F42
:10382000240ECB27000ECC23C85D0C0ED8B4C75D88
:1038300004E3020ECB27000ECC230001000EC85D6E
:103840000D0ED8B4C75D04E3F40EC727FF0E07D0F2
:103850000001C851C71104E10C0EC727000EC82390
:1038600000013B0EC56F060E50D0D950650AD3E05B
:10387000030ACCE0B3D01F0EB7C000F0B8C001F00F
:103880000016016A00280001C96F000E0120CA6FEE
:10389000050E006ED890B833B733002EFBD70C0E50
:1038A000026E036AB7C000F0B8C001F016EC3DF03C
:1038B00000C0C8F50C0E026E036AB7C000F0B8C0B5
:1038C00001F016EC3DF004C000F005C001F0640EFC
:1038D000026E036A16EC3DF000C0CBF001C0CCF0E4
:1038E0003B0EC76F070EC86FC8C5E8FF030DF35046
:1038F000C727F450C8230BD000012F0EC56F060E4A
:1039000004D00001230EC56F060EC66F67D0D950D4
:10391000670AF2E00F0AF5E061D00001610EC56FA1
:10392000060E18D000015B0EC56F060E13D0000105
:10393000550EC56F060E0ED00001670EC56F060E40
:1039400009D000014F0EC56F060E04D00001490ECC
:10395000C56F060EC66FB7C0C7F0B8C0C8F03ED07E
:103960000001110EC56F060EC66FF60ED924C76F83
:10397000C86BFF0EC8232ED0D9500B0AF1E0070AFE
:10398000EFE0010AEDE0030AEBE0010AE9E06B0A6F
:1039900001E1FAD6010A01E11ED7030A01E101D7CC
:1039A000010A01E168D70F0A01E165D7010ACEE0FB
:1039B000030AB8E0010ABBE0070AC3E0010AADE070
:1039C000030ABAE00001370EC56F060EC66FD95064
:1039D000C76FC86BB7C0C9F0B8C0CAF0DAC5DBF5AD
:1039E0000501B76B0001C5C0F6FFC6C0F7FFC54BA8
:1039F000C62B050EF76404D00800FFFFF55005D074
:103A0000F6CFE9FFF7CFEAFFEF50BF6FBF5101E1FB
:103A100014D20001BF51250A04E0BF51E1EC3AF095
:103A2000E1D70001B969BE6BBC6BC06BBFD105D2D9
:103A3000B7C5E8FF020DC70EF324E96E000EF420AF
:103A4000EA6EEF500001BE6F0501B72BAFD1000148
:103A5000C08DACD10001C08B0001C02B05D000018E
:103A6000C08902D00001C08B0001C0AB0AD0BE519A
:103A700002E1030EBE6F0001BC510AE1010EBC6FF2
:103A800007D00001BE5102E1010EBE6F0001BC6B08
:103A90000001B7C5E8FF020DC70EF324E96E000E62
:103AA000F420EA6EC0A112D0EECFC1F0EDCFC2F08B
:103AB0000501B72B0001C2AF06D0C081C16DC21F86
:103AC000D8B0C22B09D00001C09106D0EECFC1F012
:103AD000EDCFC2F00501B72B0001BD6BC0B102D024
:103AE0000001C0BDBD2B0B0E0001B927C0BBBD2B13
:103AF000010EC36FC46BBD51BE5DBD6F010ED96EAB
:103B00000001BD51D95C0FE2B9C002F0036AC3C025
:103B100000F0C4C001F02DEC3EF004C0C3F005C0BD
:103B2000C4F0D92AEDD70001C0BBBD2BBD2BB9C055
:103B300002F0036AFF0E0068016816EC3DF0C45104
:103B4000055C02E1C351045C17E3C3C002F0C4C0CA
:103B500003F0B9C000F0016A2DEC3EF004C002F0A1
:103B600005C003F0C1C000F0C2C001F016EC3DF08A
:103B700000C0C1F001C0C2F00001BE51BA6F000127
:103B8000BA5101E12FD7BD51BA6312D0C0A102D002
:103B90002D0E04D00001C0AD04D02B0EBB6FC08928
:103BA00003D0200E0001BB6FBE0E0001C01756D01F
:103BB0000001BD51BA614FD0BB6BC0BB08D018D05B
:103BC0000001C08915D02E0E0001BB6F11D000017D
:103BD000BC51BAC002F0036A025E000E035A06D05E
:103BE0000250010AF0E0030AEBE002D00350F8E0D3
:103BF0000001BB5133E1BA05D8B4C089C451C31127
:103C000001E1F0D60001C451C25D02E1C351C15DC2
:103C100007E30001C351C15FC451C25BBB2BF2D7A4
:103C2000300E0001BB27BB51300A05E1C0B905D0F9
:103C3000200EBB6F02D00001C089B9C002F0036A38
:103C4000C3C000F0C4C001F016EC3DF004C0C3F0E6
:103C500005C0C4F003D0200E0001BB6F0001BB51B2
:103C6000E1EC3AF00001BA078AD7B7C5E8FF020DC8
:103C7000C70EF324E96E000EF420EA6EEECFC3F017
:103C8000EDCFC4F00501B72BD96A01D0D92AD9509C
:103C90000001C325006E000EC421016E00C0F6FFB6
:103CA00001C0F7FF050EF76404D00800FFFFF550D0
:103CB00005D0F6CFE9FFF7CFEAFFEF50000903E0A8
:103CC000D950BE61E3D70001BE5102E1D950BE6FA9
:103CD0000001BC5102E1BE51BC6F0001BC51D96072
:103CE00002D0D950BC6F0001BE51BC5D1DE2200E58
:103CF000E1EC3AF00001BE07F6D7C3C0F6FFC4C03E
:103D0000F7FF050EF76404D00800FFFFF55005D05B
:103D1000F6CFE9FFF7CFEAFFEF500001BF6FC34BCB
:103D2000C42BBF51E1EC3AF00001BC07BC2901E112
:103D300059D6E3D7C5C0F6FFC6C0F7FF050EF76436
:103D400004D00800FFFFF55005D0F6CFE9FFF7CF0C
:103D5000EAFFEF502A0A12E1B7C5E8FF020DC70ECD
:103D6000F324E96E000EF420EA6EEF500001BC6F00
:103D70000501B72B0001C54BC62B18D0C5C0F6FFF7
:103D8000C6C0F7FF050EF76404D00800FFFFF5502A
:103D900005D0F6CFE9FFF7CFEAFFEF50D00F0001D3
:103DA000BC6FE9D70001C0B534D0C0890001C5C0DF
:103DB000F6FFC6C0F7FFC54BC62B050EF76404D04F
:103DC0000800FFFFF55005D0F6CFE9FFF7CFEAFF77
:103DD000EF50BF6FBF5101E12AD62A0A01E128D670
:103DE000010A01E134D6050AA5E01E0ADBE0740AE7
:103DF00001E130D6110A01E135D6310A01E12CD6B4
:103E0000170A01E132D7060A01E12ED60F0A01E1B5
:103E100026D62F0E0001BF650BD03A0EBF6108D029
:103E2000C085BE510A0DBF51F324D00FBE6FBED75F
:103E30000001BF51E1EC3AF0D5D51200FFFFA2D44A
:103E4000B700FFFF0501A95301E1BAD0100EC9D890
:103E5000040EC7D80501EA6BEAC500F0016A00014B
:103E6000BA51015C02E1B951005C0DE2EAC5E8FF1C
:103E70000001B725E96E000EB821EA6EEF50A3D815
:103E80000501EA2BE9D72BC086F02CC087F086C04D
:103E9000E8FF99D887C0E8FF96D821C086F022C0F5
:103EA00087F086C0E8FF8FD887C0E8FF8CD845C070
:103EB00086F046C087F086C0E8FF85D887C0E8FF57
:103EC00082D847C086F048C087F086C0E8FF7BD81C
:103ED00087C0E8FF78D84BC086F04CC087F086C01A
:103EE000E8FF71D887C0E8FF6ED82FC086F030C0D9
:103EF00087F086C0E8FF67D887C0E8FF64D8000174
:103F0000BB5161D8A3C088F0A4C089F0A5C08AF0D5
:103F1000A6C08BF088C0E8FF56D889C0E8FF53D808
:103F20008AC0E8FF50D88BC0E8FF4DD8A7C088F002
:103F3000A8C089F0A9C08AF0AAC08BF088C0E8FFA9
:103F400042D889C0E8FF3FD88AC0E8FF3CD88BC080
:103F5000E8FF39D897C088F098C089F099C08AF0F6
:103F60009AC08BF088C0E8FF2ED889C0E8FF2BD814
:103F70008AC0E8FF28D88BC0E8FF25D89BC088F00E
:103F80009CC089F09DC08AF09EC08BF088C0E8FF7D
:103F90001AD889C0E8FF17D88AC0E8FF14D88BC0A8
:103FA000E8FF11D81DC086F01EC087F086C0E8FF6C
:103FB0000AD887C0E8FF07D8100E13D8030E11D80F
:103FC0001200FFFF3FD7FFFF01D0FFFFD96ED9508E
:103FD0000001BC6FD950100A02E1100E02D8000196
:103FE000BC51FFFF9EA8FED7AD6E1200FFFFFAD7AF
:103FF000FFFFFFFFFFFFFFFFFFFFFFFFFFFFFFFFD1
:10400000FFFF0501A76B0501C15301E18BD0C16B17
:104010006EAE14D06BC000F06CC001F06DC002F049
:104020006EC003F0001E011E021E031E00C06BF0D6
:1040300001C06CF002C06DF003C06EF06BC0ABF05D
:104040006CC0ACF06DC0ADF06EC0AEF05BC09FF068
:104050005CC0A0F05DC0A1F05EC0A2F001016EA145
:104060003ED0175001016F6310D0ABC0A3F0ACC0BD
:10407000A4F0ADC0A5F0AEC0A6F09FC097F0A0C060
:1040800098F0A1C099F0A2C09AF017500101706396
:1040900010D0ABC0A7F0ACC0A8F0ADC0A9F0AEC0C6
:1040A000AAF09FC09BF0A0C09CF0A1C09DF0A2C050
:1040B0009EF000EEA7F00001EE50A325E8CFABF094
:1040C000EE50A421E8CFACF0EE50A521E8CFADF042
:1040D000ED50A621E8CFAEF0ED52ED5210D0ABC0BE
:1040E000A3F0ACC0A4F0ADC0A5F0AEC0A6F09FC0D8
:1040F00097F0A0C098F0A1C099F0A2C09AF0010E6C
:10410000E8CFA7F5A7C5D9F50001AF2B000EB02366
:10411000B123B22397C09FF098C0A0F099C0A1F03E
:104120009AC0A2F08CC0E8FF0501C51902E185EF35
:1041300028F08CC0C5F50001B32B000EB423B523C5
:10414000B62300EEAEF0ED50800A800F08E14B0E72
:10415000ED5C05E1D20EED5C02E1A40EED5C01E345
:10416000CAD000EEA2F0ED50800A800F08E15B0E8D
:10417000ED5C05E14D0EED5C02E1710EED5C01E2DE
:10418000BAD000EEA2F0ED50800A800F08E17F0E59
:10419000ED5C05E1240EED5C02E1840EED5C01E3D3
:1041A000AAD0ABC08FF2ACC090F2ADC091F2AEC05D
:1041B00092F29FC08BF2A0C08CF2A1C08DF2A2C07F
:1041C0008EF2E80E3F6E030E406E63C004F064C0D2
:1041D00005F065C006F066C007F001EE6CF0EECFAA
:1041E00000F0EDCF01F0026A036A91EC3CF000C0F0
:1041F0004FF001C050F002C051F003C052F03F50E8
:10420000046E4050056E066A076A4FC000F050C049
:1042100001F051C002F052C003F09EEC3DF000C02E
:1042200063F001C064F002C065F003C066F0635043
:104230006726645068226550692266506A22354AB2
:10424000362A0A0E046E056A066A076A050E63249A
:10425000006E000E6420016E000E6520026E000EDE
:104260006620036E9EEC3DF000C02BF001C02CF0E8
:104270001950046E1A50056E066A076A2BC000F0CA
:104280002CC001F0026A036A91EC3CF0100E046E3F
:10429000270E056E000E066A076A9EEC3DF000C010
:1042A00021F001C022F0DA0E006E830E016E3C0E8A
:1042B000026E00C0B7F001C0B8F002C0B9F08FC202
:1042C00000F090C201F091C202F092C203F0F2EC51
:1042D0003DF0B7C003F0B8C004F0B9C005F07CEC05
:1042E00002F077EC3DF000C063F001C064F002C062
:1042F00065F003C066F0000E365C020ED8B4355C83
:1043000002E2DFEF25F0390E00018C65DFEF25F0CA
:104310003550046E3650056E066A076A1E0E672415
:10432000006E000E6820016E000E6920026E000E05
:104330006A20036ED5EC01F000C05FF001C060F0B0
:1043400002C061F003C062F0676A686A696A6A6AFB
:10435000356A366A0A0E046E056A066A076A050E31
:104360005F24006E000E6020016E000E6120026E60
:10437000000E6220036ED5EC01F000C029F001C0F0
:104380002AF001EE95F0EECF00F0EDCF01F02A50CB
:10439000015C02E12950005C04E229C095F12AC0C9
:1043A00096F101EE99F0EECF00F0EDCF01F02A503A
:1043B000015C02E12950005C04E229C099F12AC0A5
:1043C0009AF101EEA1F05F50EE266050EE226150AE
:1043D000EE226250ED22ED52ED52700E046E170E79
:1043E000056E066A076AA1C100F0A2C101F0A3C16F
:1043F00002F0A4C103F0B80E0024086E0B0E0120D9
:10440000096E000E02200A6E000E03200B6E08C01B
:1044100000F009C001F00AC002F00BC003F0D5ECB7
:1044200001F000C031F001C032F001EEA9F05F50A0
:10443000EE266050EE226150EE226250ED22ED52E7
:10444000ED52600E046EEA0E056E066A076AA9C197
:1044500000F0AAC101F0ABC102F0ACC103F0300E14
:104460000024086E750E0120096E000E02200A6EEF
:10447000000E03200B6E08C000F009C001F00AC056
:1044800002F00BC003F09EEC3DF000C02DF001C027
:104490002EF00101A52B000EA623A723A823AFEC25
:1044A0002DF000C01FF001C020F091C0E8FF200DEA
:1044B00090C0E8FFF3243F6E000EF420406E01012F
:1044C00003A11CD001EE11F0EECF00F0EDCF01F012
:1044D0000150405C02E100503F5C10E301EE13F03C
:1044E000EECF00F0EDCF01F04050015C02E13F5013
:1044F000005C04E3010EE8CFA8F502D00501A86B2B
:10450000A8C5A6F505EEAAF0F80EEF16EED0050147
:10451000A56B04C1E8FF0501A55D01E3F2D0A8C5C4
:1045200000F0010104290002A5C5E8FFF324E8CF4B
:10453000A4F50501A429E8CFA1F5A4C5E8FF020D63
:10454000150EF324E96E010EF420EA6EEECF00F0B2
:10455000EDCF01F000C095F001C096F0A1C5E8FFD5
:10456000020D150EF324E96E010EF420EA6EEECF73
:1045700000F0EDCF01F000C093F001C094F095C0C1
:1045800000F096C001F001502E5C02E100502D5C5D
:1045900017E393C000F094C001F001502E5C02E1DB
:1045A00000502D5C0DE2A8C500F004C1E8FF000238
:1045B000A5C5E8FFF324E8CFA6F5A5C500F084D093
:1045C0000501A52BA6D7A8C500F00101042900020A
:1045D000F3CFA6F589EC28F0000901E092D08EC057
:1045E000E8FF3C0D8DC0E8FFF3243F6E000EF42081
:1045F000406E0501A26B04C1E8FF0501A25D01E365
:1046000080D00501A36B6AD0A8C500F004C101F0F9
:10461000D8900136D89001340002A3C500F0A2C59D
:1046200001F0D8900134026E00500224006ED89040
:104630000034F324E8CFA4F5A4C5E8FF020D150E5D
:10464000F324E96E010EF420EA6EEECF00F0EDCF18
:1046500001F000C095F001C096F0A4C5E8FF020D7E
:10466000170EF324E96E010EF420EA6EEECF00F08F
:10467000EDCF01F000C093F001C094F095C000F0C0
:1046800096C001F00150405C02E100503F5C24E321
:1046900093C000F094C001F00150405C02E1005072
:1046A0003F5C1AE2A8C500F0010104290002F3CF23
:1046B000A6F5A6C5E8FF0501A225006E0028E8CFF3
:1046C000A6F5A2C500F0002A05EEAAF0EF500018EA
:1046D000F80B0018EF6E15D00501A32B010E050194
:1046E000A36592D70501A22B86D701EE03F0EF3028
:1046F000006E0030030B020A01E109D7010A01E153
:1047000062D7A6C5E8FF020D550EF324E96E010E2F
:10471000F420EA6EEECF1DF0EDCF1EF0A8C5E8FF45
:10472000020D0D0EF324E96E010EF420EA6EEECFB9
:104730003FF0EDCF40F03F501D24416E40501E2011
:10474000426E01EE69F0EECF00F0EDCF01F0100EF9
:104750000024436E270E0120446E4350046E4450E3
:10476000056E066A076A41C000F042C001F0026AA5
:10477000036A91EC3CF0100E046E270E056E000EDD
:10478000066A076A9EEC3DF000C019F001C01AF0FD
:104790005FC004F060C005F061C006F062C007F0C1
:1047A00019C000F01AC001F0026A036A91EC3CF0F3
:1047B000F40E0026010E0122000E02220322E80E52
:1047C000046E030E056E000E066A076AD5EC01F052
:1047D00000C057F001C058F002C059F003C05AF0B1
:1047E00001EE9DF05750EE265850EE225950EE2221
:1047F0005A50ED22ED52ED5201EEADF05750EE263B
:104800005850EE225950EE225A50ED22ED52ED5200
:10481000640E046E056A066A076A57C000F058C045
:1048200001F059C002F05AC003F09EEC3DF000C008
:104830003FF001C040F001EE97F0EECF00F0EDCF79
:1048400001F04050015C02E13F50005C04E23FC0D7
:1048500097F140C098F101EE9BF0EECF00F0EDCF64
:1048600001F04050015C02E13F50005C04E23FC0B7
:104870009BF140C09CF1700E046E170E056E000E89
:10488000066A076A9DC100F09EC101F09FC102F057
:10489000A0C103F0D5EC01F000C023F001C024F06A
:1048A0008EC0E8FF3C0DA00E006E050E016EF350A9
:1048B000005C026EF4500158036E8DC0E8FF025C8C
:1048C000436E0350D8A00304446EA00E046E050E80
:1048D000056E000E066A076A1FC000F020C001F0D6
:1048E000026A036A91EC3CF043500024576E445036
:1048F0000120586E000E0220596E000E03205A6EE1
:10490000700E046E170E056E000E066A076AADC1C2
:1049100000F0AEC101F0AFC102F0B0C103F0D5ECC0
:1049200001F000C047F001C048F002C049F003C0E8
:104930004AF0A5C104F0A6C105F0A7C106F0A8C1C0
:1049400007F0A9C100F0AAC101F0ABC102F0ACC1EF
:1049500003F0D5EC01F000C04FF001C050F002C0F0
:1049600051F003C052F057C004F058C005F059C0D0
:1049700006F05AC007F04FC000F050C001F051C01F
:1049800002F052C003F091EC3CF0600E046EEA0EAF
:10499000056E000E066A076A9EEC3DF000C053F0FB
:1049A00001C054F002C055F003C056F053502D24FE
:1049B0002F6E54502E20306EA5C104F0A6C105F014
:1049C000A7C106F0A8C107F0ADC100F0AEC101F06B
:1049D000AFC102F0B0C103F0D5EC01F000C04FF060
:1049E00001C050F002C051F003C052F057C004F0B3
:1049F00058C005F059C006F05AC007F04FC000F08B
:104A000050C001F051C002F052C003F091EC3CF0F4
:104A1000700E046E170E056E000E066A076A9EEC95
:104A20003DF000C053F001C054F002C055F003C087
:104A300056F0535047244B6E545048204C6E5550FE
:104A400049204D6E56504A204E6E01EE69F0EECF71
:104A500000F0EDCF01F0100E0024436E270E012070
:104A6000446E4350046E4450056E066A076AA8C53A
:104A7000E8FF020D090EF324E96E010EF420EA6E40
:104A8000EECF00F0EDCF01F0026A036A91EC3CF04A
:104A9000100E046E270E056E000E066A076A9EEC65
:104AA0003DF000C04FF001C050F002C051F003C013
:104AB00052F052504A5C08E15150495C05E15050B7
:104AC000485C02E14F50475C08E24FC047F050C0DD
:104AD00048F051C049F052C04AF052504E5C08E1D3
:104AE00051504D5C05E150504C5C02E14F504B5C25
:104AF00008E24FC04BF050C04CF051C04DF052C0D6
:104B00004EF04350046E4450056E066A076AA8C50D
:104B1000E8FF020D050EF324E96E010EF420EA6EA3
:104B2000EECF00F0EDCF01F0026A036A91EC3CF0A9
:104B3000100E046E270E056E000E066A076A9EECC4
:104B40003DF000C04FF001C050F002C051F003C072
:104B500052F04F504726505048225150492252504F
:104B60004A224F504B2650504C2251504D22525009
:104B70004E220A0E046E056A066A076A050E47246D
:104B8000006E000E4820016E000E4920026E000EDD
:104B90004A20036ED5EC01F000C047F001C048F098
:104BA00002C049F003C04AF00A0E046E056A066AA4
:104BB000076A4B0EE96E000EEA6E74EC3EF04B0E87
:104BC000006E370E016E390E026E00C0B7F001C0E4
:104BD000B8F002C0B9F08BC200F08CC201F08DC2F7
:104BE00002F08EC203F0F2EC3DF0B7C003F0B8C0A3
:104BF00004F0B9C005F07CEC02F077EC3DF000C0A9
:104C000045F001C046F0030E465CE80ED8B4455CA2
:104C100068E3050E465CDD0ED8B4455C62E201EE49
:104C20008BF0EECF00F0EDCF01F04650015C02E1D9
:104C30004550005C0EE245C08BF146C08CF1020E7F
:104C40000001BA6FBB6BC9EC33F000C08DF101C03D
:104C50008EF101EE87F0EECF00F0EDCF01F00150C4
:104C6000465C02E10050455C0EE245C087F146C05B
:104C700088F1020E0001BA6FBB6BC9EC33F000C0C3
:104C800089F101C08AF191C0E8FF200D90C0E8FFD2
:104C9000F3243F6E000EF420406E01EE92F0EECF52
:104CA00000F0EDCF01F04650015C02E14550005CA0
:104CB00006E245C092F146C093F13FC094F101EE87
:104CC0008FF0EECF00F0EDCF01F00150465C02E135
:104CD0000050455C06E245C08FF146C090F13FC0F0
:104CE00091F11C501B1005E10501D95302E0010EA2
:104CF00001D0000EE8CFD9F50501D95301E192D0DA
:104D000001EE7BF0EECF00F0EDCF01F00150225C20
:104D100002E10050215C09E30501ABB103D0080EAC
:104D2000E8CFACF50501AB8102D00501AB9101EEF6
:104D30007DF0EECF00F0EDCF01F001502C5C02E1F0
:104D400000502B5C09E30501ABB303D0080EE8CF9C
:104D5000ACF50501AB8302D00501AB9301EE7FF00A
:104D6000EECF00F0EDCF01F0026A036A03504A5C17
:104D700008E10250495C05E10150485C02E1005045
:104D8000475C09E30501ABB503D0080EE8CFACF5ED
:104D90000501AB8502D00501AB9501EE81F0EECFA8
:104DA00000F0EDCF01F001502E5C02E100502D5CCF
:104DB00009E30501ABB703D0080EE8CFACF5050158
:104DC000AB8702D00501AB9701EE83F0EECF00F088
:104DD000EDCF01F04650015C02E14550005C09E373
:104DE0000501ABB903D0080EE8CFACF50501AB89DE
:104DF00002D00501AB9901EE85F0EECF00F0EDCFCA
:104E000001F00150465C02E10050455C09E30501F8
:104E1000ABBB03D0080EE8CFACF50501AB8B02D0DD
:104E20000501AB9B8CC0E8FF3A0A01E06ED18DC052
:104E3000E8FF3B0A01E069D18EC0E8FF170A01E0F4
:104E400064D120501F1001E039D1B1C1A5F50C0E7D
:104E50000501A56503D00101B16B02D00101B12BA1
:104E600091C000F0002AA5C5E8FF060DB20EF3249C
:104E7000E96E010EF420EA6EEF500018F00B0018F6
:104E8000EF6E0A0E016E92C0E8FF49EC3DF0A5C539
:104E9000E8FF060DB20EF324E96E010EF420EA6E6F
:104EA000003AEF5000180F0B0018EF6E0A0E016E5B
:104EB00092C0E8FF49EC3DF0006E0A0E016E005012
:104EC00049EC3DF0070E0016A5C5E8FF060DB30E30
:104ED000F324E96E010EF420EA6EEF500018F80B8F
:104EE0000018EF6E90C000F0002AA5C5E8FF060D7F
:104EF000B30EF324E96E010EF420EA6E003600369C
:104F00000036EF500018070B0018EF6E600E046EAD
:104F1000EA0E056E000E066A076AA9C100F0AAC172
:104F200001F0ABC102F0ACC103F0D5EC01F0A5C5B6
:104F3000E8FF060DB40EF324E96E010EF420EA6ECC
:104F400000C0EEFF01C0EDFF01EE69F0EECF00F012
:104F5000EDCF01F0100E0024436E270E0120446EA9
:104F60004350046E4450056E066A076AA8C5E8FF00
:104F7000020D090EF324E96E010EF420EA6EEECF65
:104F800000F0EDCF01F0026A036A91EC3CF0A00E54
:104F9000046E860E056E010E066E000E076A9EEC0C
:104FA0003DF000C04FF001C050F002C051F003C00E
:104FB00052F0600E046EEA0E056E000E066A076A75
:104FC000ADC100F0AEC101F0AFC102F0B0C103F05D
:104FD000D5EC01F000C03FF001C040F03FC000F050
:104FE00040C001F0026A036A0350800A046E525006
:104FF000800A045C08E15150025C05E15050015CFC
:1050000002E14F50005C04E24FC03FF050C040F05E
:105010004350046E4450056E066A076AA8C5E8FF4F
:10502000020D050EF324E96E010EF420EA6EEECFB8
:1050300000F0EDCF01F0026A036A91EC3CF0A00EA3
:10504000046E860E056E010E066E000E076A9EEC5B
:105050003DF000C04FF001C050F002C051F003C05D
:1050600052F04F503F2650504022A5C5E8FF060D94
:10507000B60EF324E96E010EF420EA6E3FC0EEFF97
:1050800040C0EDFF040E0001BA6F010E3DEC35F09B
:105090000001870EBA6F010EBB6FBC6BBD6B2A0E91
:1050A000BE6FBF6BBDEC3DF00101DC0E8F6F050ED6
:1050B000906F0101E80E926F030E936F030E0001D3
:1050C000BA6F010E3DEC35F0140EE8CFC4F501EED9
:1050D000A1F0EE6AEE6AEE6AEE6A01EE9DF0EE6A0B
:1050E000EE6AEE6AEE6A01EE95F0EE6AEE6A01EEA5
:1050F00097F0EE6AEE6A0101DC0E876F050E886F8D
:105100000101E80E8B6F030E8C6F1200FFFF01EFA1
:1051100020F0FFFF006A016A026A036A0001CB6B9C
:10512000CC6BCD6BCE6B046A056A066A076A5EC5F6
:10513000E8FF000192630FD05FC5E8FF00019163B3
:105140000AD060C5E8FF0001906305D061C5E8FFA3
:10515000320A01E08AD192C05EF591C05FF590C03D
:1051600060F50501616B91C0D6F090C0D7F092C098
:10517000E8FF81D90001BA6FBA5103E0BA51060ABB
:1051800004E1010EE8CF61F570D10001C16BC26B83
:1051900060D1030E026E036AC1C000F0C2C001F00C
:1051A0002DEC3EF0620E0424E96E050E0520EA6E39
:1051B000EFCF00F1030E026E036AC1C000F0C2C05F
:1051C00001F02DEC3EF0630E0424E96E050E05207F
:1051D000EA6EEFCF01F1030E026E036AC1C000F068
:1051E000C2C001F02DEC3EF0640E0424E96E050E01
:1051F0000520EA6EEFCF02F101EE03F0EF380F0B5E
:10520000006E01EE02F0EF501F0B001801E01ED1FE
:1052100007D101EE00F0EF380F0B0001911901E00A
:1052200015D101EE01F0EF501F0B0001901925D0B0
:1052300001EE00F0EF380F0B0001911901E006D1EB
:1052400092C0CFF001EE01F0EF501F0B0001D06FC4
:1052500001EE01F0EF38006E0030070BD16F01EE68
:1052600000F0EF380F0B9FDA006E00C002F0036A07
:1052700090C0E8FF021801E1035201E0E7D04BD0F3
:1052800001EE00F0EF380F0B0001911901E0DED0C4
:1052900001EE00F0EF380F0B0001CF6F92C0D0F09D
:1052A00001EE01F0EF501F0BD16F01EE01F0EF386E
:1052B000006E0030070B2BDA006E00C002F0036AAC
:1052C00090C0E8FF021801E10352D7D70001BA05E8
:1052D00001E0BCD091C0E8FF040A01E0B7D090C063
:1052E00000F0016A0150800A800802E100501008B5
:1052F00001E3ACD0180E00019061A8D00CD091C091
:10530000E8FF060A01E0A2D00001BA5108E000EE71
:1053100090F0EF5004E1010EE8CF61F597D0000165
:10532000BA0501E093D090C000F00004A6D761EC6C
:105330002EF000C0C7F001C0C8F002C0C9F003C021
:10534000CAF092C000F0D00E00240001BF6FC06B05
:10535000070EC02391C000F00028BD6FBE6B000E89
:10536000BE2390C000F00028BB6FBC6B000EBC23B6
:10537000BFC0EDF0C0C0EEF0BDC0EFF0BEC0F0F0B9
:10538000BBC0F1F0BCC0F2F053DA00C0CBF001C0FA
:10539000CCF002C0CDF003C0CEF00001C751CB5D10
:1053A000C36FC851CC59C46FC951CD59C56FCA51CB
:1053B000CE59C66F01EE02F0EF38006E0030030BDD
:1053C000046E056A066A076A010102AF1BD004C0B9
:1053D00000F005C001F006C002F007C003F0001E97
:1053E000011E021E031E002AD8B4012AD8B4022AC4
:1053F000D8B4032A00C004F001C005F002C006F0D2
:1054000003C007F000010750C61908E10650C5198E
:1054100005E10550C41902E10450C31917E17BD717
:1054200001EE00F0EF500F0B010A01E1F2D6030A82
:1054300001E1FED6010A01E123D7070A01E146D7BF
:10544000010A01E174D7030A01E159D70001C14BF8
:10545000C22B0001C251800A800F150ED8B4C15D65
:1054600004E20501615301E194D661C5E8FF120031
:10547000FFFF50D6D600FFFFF36E630EF36401D03A
:1054800009D00B0E0001D66501D004D01E0E00011C
:10549000D76502D0630E49D00001D729D86F020E1C
:1054A000D66105D0D6510B0FE16EF30404D0000194
:1054B000D605E16EF350D96E050E026E036AE15017
:1054C0000D0DFF0EF324006EFF0EF420016E08ECAC
:1054D0003EF00450E96ED940E8423F0BE16ED950EE
:1054E000D8C000F0016A0026000E0122E950002613
:1054F000000E0122E1500026000E0122DD0E0024E4
:10550000F36EFF0E0120F46E070E026E036AF3CFF6
:1055100000F0F4CF01F008EC3EF00050D96E7F0EA1
:10552000D96402D0070ED926D9501200FFFFA4D7A4
:10553000FFFF0001C16F020E0001916101D052D046
:105540000A0E0001916501D04DD0020E0001916557
:1055500004D00A0E916101D043D091C0E8FF020A45
:105560001CE192C0CFF00001D06B020ED16F1BD9AD
:105570000001C26FC251630A35E0C251000190615F
:1055800001D030D090C0E8FF0001C26101D028D026
:10559000020E00018E6124D025D092C0CFF0000110
:1055A000D06B010ED16F0A0EFED80001C26FC2513E
:1055B000630A18E090C0E8FFC26101D013D0000177
:1055C000C2510001906101D00BD00001C15102E035
:1055D000020E01D0010ED96ED95000018E6102D0A9
:1055E000010E01D0000E1200FFFFA3D7FFFF160E21
:1055F00000018E6523D092C0D4F091C0E8FF51D84D
:105600000001C16FC151630A1CE000018E6B0001F3
:10561000C1510001905D0EE3906B0A0E000191658F
:1056200005D0916B0001010E922B0BD00001010EF1
:10563000912B07D00001010E902B03D00001010E29
:105640008E2B1200FFFFD3D7FFFF00EE8EF0EF503E
:1056500021E1170EE8CF8EF000EE90F0EF5016E14A
:1056600000EE91F0EF5003E10001920702D000013B
:10567000910792C0D4F091C0E8FF13D80001C16F28
:10568000C151630A0AE0C1C090F007D00001010EC9
:10569000900703D00001010E8E071200FFFFD5D73F
:1056A000D400FFFFE16E0B0EE16402D0630E2BD03D
:1056B000E1CF00F0016A00507C0FF66E0150F76EEA
:1056C000070EF7220800FFFFF550006E0004D96EA8
:1056D000E10418E1900E026E010E036ED4C000F0DA
:1056E000016A08EC3EF0015000100BE0640E016E00
:1056F0000001D45149EC3DF0005004E0D451030BBB
:10570000D8B4D92AD9501200FFFFCCD7CF00FFFF61
:10571000D96E0B0E0001CF6501D031D0630ED0657C
:1057200001D02DD0D95016E00001CF51D66FD76BE4
:10573000D051A1DE0001D36FD351630A20E0D351D1
:10574000D1192BE0D351D15DD36FD351D16125D085
:10575000070E22D00001D051D46FCF51A2DF00013B
:10576000D26FD251630A0BE0CF51D66FD251D76FAF
:10577000D05181DE0001D36FD351630A02E1630E81
:105780000ED00001D351D25D006ED1510024D36FF1
:10579000D151D36102D0F90ED3270001D3511200A9
:1057A000FFFFB6D7CF00FFFFD96ED9500001D26FEF
:1057B0000B0ED96401D011D0630ECF6501D00DD08E
:1057C0000001D1510AE0D251D66FD76BCF5153DED1
:1057D0000001D36FD351630A02E1630E25D00001AB
:1057E000D051D96ED351D96002D0070ED92600010D
:1057F000D151070DD351D95C006EF3500024F90F3D
:10580000D46FD251D66FD451D76FCF5134DE00014F
:10581000D56FD551630A03E0D551D01903E0630E6B
:105820000001D46F0001D4511200FFFFBDD7ED007D
:10583000FFFF046A056A066A076A0001F051800AE0
:10584000800F030ED8B4EF5D07E2FF0EED25006E6A
:10585000FF0EEE21016E04D0EDC000F0EEC001F0AD
:1058600000C0F3FF01C0F4FFF051800A800F030E67
:10587000D8B4EF5D09E20C0EEFC000F0F0C001F00B
:105880000026000E012204D0EFC000F0F0C001F0AD
:1058900000C0F6FF01C0F7FFA00E006EB60E016E4D
:1058A000430E026E00C0FAF001C0FBF002C0FCF033
:1058B000F3CF00F0F4CF01F05BEC3EF0FAC003F060
:1058C000FBC004F0FCC005F07CEC02F000C0F3F07B
:1058D00001C0F4F002C0F5F0F3C000F0F4C001F034
:1058E000F5C002F077EC3DF000C0F6F001C0F7F033
:1058F00002C0F8F003C0F9F0CD0E006EF40E016E98
:10590000410E026E00C0FAF001C0FBF002C0FCF0D4
:10591000006A800E016E3F0E026E00C0FDF001C0F5
:10592000FEF002C0FFF0F6CF00F0F7CF01F05BEC25
:105930003EF0FDC003F0FEC004F0FFC005F0EEEC49
:105940003CF0FAC003F0FBC004F0FCC005F07CECB6
:1059500002F000C0F3F001C0F4F002C0F5F0F3C0B3
:1059600000F0F4C001F0F5C002F077EC3DF000501B
:10597000F6270150F7230250F8230350F923F1C012
:1059800000F0F2C001F0000E01BEFF0E026E036EC9
:105990000050F6270150F7230250F8230350F92353
:1059A000640E026E036AF3CF00F0F4CF01F016EC40
:1059B0003DF004C0F6FF05C0F7FFF6CF02F0F7CFC9
:1059C00003F0D89003320232D89003320232F650FC
:1059D0000208006E000EF754016E02500024F36EB0
:1059E00003500120F46EF3CF00F0F4CF01F0026A0F
:1059F000036A0050F6270150F7230250F8230350A2
:105A0000F923170EF625046E050EF721056EF50E27
:105A1000F821066EFF0EF921076E04C000F005C0E4
:105A200001F006C002F007C003F01200FFFF01D72B
:105A3000FFFF400E046E056A066A076A4FC000F059
:105A400050C001F051C002F052C003F09EEC3DF096
:105A500004C08CF0400E046E056A066A076A4F0E99
:105A6000E96E000EEA6E88EC3EF0400E046E056AA8
:105A7000066A076A4FC000F050C001F051C002F042
:105A800052C003F09EEC3DF004C08DF0400E046E59
:105A9000056A066A076A4F0EE96E000EEA6E88EC28
:105AA0003EF0200E046E056A066A076A4FC000F0D9
:105AB00050C001F051C002F052C003F09EEC3DF026
:105AC00004C08EF0200E046E056A066A076A4F0E47
:105AD000E96E000EEA6E88EC3EF0200E046E056A58
