:020000040000FA
:10000000830100308A0004282030840058300D20FD
:100010008301942A04068001840A0406031D0A2829
:100020000034820728346334293432343034303495
:1000300035342D3432343034303437342034453490
:100040006E3465347234673479342C342034493456
:100050006E3463342E34203441346C346C342034A8
:1000600072346934673468347434733420347234CD
:1000700065347334653472347634653464342E34C4
:100080002034763436342E3430343134FF3FFF3F61
:10009000FF3FFF3FFF3FFF3FFF3FFF3FFF3FFF3F70
:1000A000FF3FFF3FFF3FFF3FFF3FFF3FFF3FFF3F60
:1000B000FF3FFF3FFF3FFF3FFF3FFF3FFF3FFF3F50
:1000C000FF3FFF3FFF3FFF3FFF3FFF3FFF3FFF3F40
:1000D000FF3FFF3FFF3FFF3FFF3FFF3FFF3FFF3F30
:1000E000FF3FFF3FFF3FFF3FFF3FFF3FFF3FFF3F20
:1000F000FF3FFF3FFF3FFF3FFF3FFF3FFF3FFF3F10
:10010000FF3FFF3FFF3FFF3FFF3FFF3FFF3FFF3FFF
:10011000FF3FFF3FFF3FFF3FFF3FFF3FFF3FFF3FEF
:10012000FF3FFF3FFF3FFF3FFF3FFF3FFF3FFF3FDF
:10013000FF3FFF3FFF3FFF3FFF3FFF3FFF3FFF3FCF
:10014000FF3FFF3FFF3F83120313D30053084038A4
:10015000E7204908E7204808E7204708E72008008B
:1001600083120313D3005308E7200616BE20C900EC
:10017000BE20C800BE20C700CA0108000830831294
:100180000313D500CA280515031085190314D40DCF
:100190000511D503D508031DCE28CF28C328540840
:1001A000D1280800F401F5010310F30CF20C031C34
:1001B000E0287008F40771080318710AF5070310A6
:1001C000F00DF10D7208730403190034D428831262
:1001D0000313D4000830D500F9280511D41FF128E5
:1001E000F228F4280616F528061205150310D40D7A
:1001F000D503D508031DFD28FE28ED2805110800AC
:1002000083120313D500D6010B30D7002529560CD5
:1002100003180B290D2985140E298510CB300000F9
:100220000000A000A003200F122904308312031342
:100230005702031C1C291D2922295509D600031029
:10024000D50C2429D601D60AD703D708031D29299E
:100250002A290729080083120313861000000000D2
:100260000000000086140000000000000000713053
:10027000C700C801C901CA010030A3202F08C70068
:100280003008C8003108C9003208CA000A30A3206B
:100290003B08C7003C08C8003D08C9003E08CA002A
:1002A0001C30A3202B08C7002C08C8002D08C9004B
:1002B0002E08CA000430A3203F08C7004008C80029
:1002C0004108C9004208CA000830A320E830E720EE
:1002D000080083120313CB01CC01CD01CE01CF0165
:1002E000D001D101D20164001E30B020C91F79298C
:1002F0007A297B29A429CB0A0319CC0A0319CD0A30
:100300000319CE0A00304E02031D902901304D0220
:10031000031D902986304C02031D9029A1304B0209
:10032000031C93299429A329CB01CC01CD01CE0133
:100330002B213D30C700F830C800EB30C900003039
:10034000CA001E30A320732947080139F0000310AA
:10035000470C0E397004A3000310490C0439F00057
:1003600049080339F1004808F83971047004A40001
:100370001E30A3201430B0204708B3004808B40052
:100380004908B5004A08B600B51FC729C829CA29B7
:10039000FF30B6001630B0204708B7004808B80054
:1003A0004908B9004A08BA001830B0204708C3000D
:1003B0004808C4004908C5004A08C60008000A30B9
:1003C000F100831203132208CA23F000F1010A305E
:1003D000F2000030F300D2202208F000F10174088E
:1003E000F002031CF1037508F1027008D3007108D4
:1003F000D4009630F2000030F3005408F1005308A6
:10040000F000D220C8307407D30000300318013048
:100410007507D4001E2A00000000051C102A112AAE
:10042000192ACF0A0319D00A0319D10A0319D20ACB
:100430001D2ACF01D001D101D20164005308F00080
:100440005408F1000030F11BFF30F200F3005208B5
:100450007302031D352A51087202031D352A500804
:100460007102031D352A4F0870020318382A392AF1
:100470000B2A06155530A900AA01290800212208D7
:10048000A9070318AA0A220800212108A9070318AE
:10049000AA0A21080021A10A330800213308A9076C
:1004A0000318AA0A340800213408A9070318AA0A65
:1004B000350800213508A9070318AA0A43080021B6
:1004C0004308A9070318AA0A440800214408A907F9
:1004D0000318AA0A450800214508A9070318AA0A13
:1004E000F001F10129087002A9002A08031C2A0A58
:1004F0007102AA002A08F1002908F0000830F20071
:10050000710DF10CF00CF20B802A7008D300710809
:10051000D4005308A6002908A700260800212708B0
:1005200000210611640008006400073083120313E1
:100530009F004F30831681000230831285001930EE
:1005400083168500023083128600E9308316860008
:100550008312A101831600309B001C141A08831219
:10056000A200831601309B001C141A088312B100EC
:10057000831602309B001C141A088312B0008316E5
:1005800003309B001C141A088312AF000030B20025
:10059000831604309B001C141A088312BD008316B6
:1005A00005309B001C141A088312BC008316063009
:1005B0009B001C141A088312BB000030BE00831677
:1005C00007309B001C141A088312AD0083160830F4
:1005D0009B001C141A088312AC00831609309B0080
:1005E0001C141A088312AB000030AE0083160A30C8
:1005F0009B001C141A088312C10083160B309B0049
:100600001C141A088312C00083160C309B001C14A3
:100610001A088312BF000030C20000303202031DEE
:100620001B2B00303102031D1B2B0E303002031D2B
:100630001B2BD8302F0203181E2B2F2B0030320219
:10064000031D2C2B00303102031D2C2B10303002E7
:10065000031D2C2B69302F02031C302B2F2B322B28
:10066000312B3A2B6630AF000F30B0000030B100B4
:100670000030B200BD1F3D2B3E2B552B00303E02FB
:10068000031D4C2BF0303D02031D4C2B00303C026F
:10069000031D4C2B00303B0203184F2B502B542BC7
:1006A000BB01BC01BD01BE016B2B00303E02031D2E
:1006B000632B10303D02031D632B00303C02031DF1
:1006C000632B01303B02031C662B672B6B2BBB019A
:1006D000BC01BD01BE0100302E02031D792B30305C
:1006E0002D02031D792B00302C02031D792B0030C5
:1006F0002B0203187C2B8D2B00302E02031D8A2B1E
:1007000050302D02031D8A2B00302C02031D8A2B32
:1007100001302B02031C8E2B8D2B902B8F2B982BB3
:100720000030AB000030AC004030AD000030AE0017
:1007300000304202031DA62B30304102031DA62BC0
:1007400000304002031DA62B00303F020318A92BE6
:10075000BA2B00304202031DB72B50304102031D5B
:10076000B72B00304002031DB72B01303F02031CA2
:10077000BB2BBA2BBD2BBC2BC52B0030BF000030D0
:10078000C0004030C1000030C2002B216921DF21B0
:10079000C62B0428F000F4010310FD307107031C80
:1007A000F12BF301F0307105031DD92B0430F30058
:1007B000F10EF2010310F30AF10D031CDB2BF10C17
:1007C000710870020318F000F20DF30BDF2BF41F19
:1007D000EB2BF209F20A7208F41F0800F009F00A84
:1007E0000800F10C0318FA2BF10C031CF0010310A4
:1007F000F00C031C03107008F200F001F00DE72B61
:104200005C0000000F0042000000000000004000C1
:104210001A00EC004000B2008E00FF00FF00FF001B
:10422000070003002100FF00FF00FF00FF00FF0068
:10423000FF00FF00FF00FF00FF00FF00FF00FF0086
:10424000FF00FF00FF00FF00FF00FF00FF00FF0076
:10425000FF00FF00FF00FF00FF00FF00FF00FF0066
:10426000FF00FF00FF00FF00FF00FF00FF00FF0056
:10427000FF00FF00FF00FF00FF00FF00FF00FF0046
:10428000FF00FF00FF00FF00FF00FF00FF00FF0036
:10429000FF00FF00FF00FF00FF00FF00FF00FF0026
:1042A000FF00FF00FF00FF00FF00FF00FF00FF0016
:1042B000FF00FF00FF00FF00FF00FF00FF00FF0006
:1042C000FF00FF00FF00FF00FF00FF00FF00FF00F6
:1042D000FF00FF00FF00FF00FF00FF00FF00FF00E6
:1042E000FF00FF00FF00FF00FF00FF00FF00FF00D6
:1042F000FF00FF00FF00FF00FF00FF00FF00FF00C6
:02400E00673F0A
:08400000FF3FFF3FFF3FFF3FC0
:00000001FF
